:100000000C9434000C9451000C9451000C94510049
:100010000C9451000C9451000C9451000C9451001C
:100020000C9451000C9451000C9451000C94AA06AD
:100030000C9451000C9451000C9435090C9451000F
:100040000C9451000C9451000C9451000C945100EC
:100050000C9451000C9451000C9451000C945100DC
:100060000C9451000C94510011241FBECFEFD8E026
:10007000DEBFCDBF13E0A0E0B1E0ECE0FBE102C0E9
:1000800005900D92A030B107D9F713E0A0E0B3E0DE
:1000900001C01D92A63FB107E1F70E94210B0C940D
:1000A000840D0C940000FFCF9C01ADECBCEC0E94D1
:1000B000740BEC01D695C795D695C795D695C7957F
:1000C000259A2091000130910101232B51F02D9AA6
:1000D000CE010E949C092091000130910101232B47
:1000E000B1F72D98CE010E949C09EBCF0E94B30876
:1000F0007C010E947506C7018A529F4F4C01F7018F
:10010000E652FF4F5F01C70185529F4F6C0197E098
:10011000292E312C2AE1522E89E190E00E949C097F
:100120000E94BB028F3F99F08B3609F49EC108F400
:1001300082C18D3609F48FC18A3749F48091040158
:10014000909105010A96909305018093040188E03F
:1001500093E00E94D00985E20E94020661E081E0FE
:100160000E943C0580E191E00E94D00261E082E0C3
:100170000E943C058FE191E00E94D002F401608171
:100180007181828193810E945F0361E083E00E941C
:100190003C058DE291E00E94D002F501808190E063
:1001A0000E94E30261E084E00E943C0585E491E066
:1001B0000E94D002F601808190E00E94E30261E09B
:1001C00086E00E943C0587E691E00E94D002E701AC
:1001D00011E0612C712C08C0FFEF6F1A7F0A6A963C
:1001E000115F193709F47FC08E859F85892BA1F394
:1001F000C301B1010E94830B815E0E940206612F40
:1002000087E00E943C0580E891E00E94D00288814E
:1002100090E00E94E302612F88E00E943C0585E89F
:1002200091E00E94D00289819A810E94FA03612F95
:1002300089E00E943C058DE891E00E94D0028B810C
:100240009C810E94FA03612F8AE00E943C0585E9A7
:1002500091E00E94D0028D8190E00E94E302612F24
:100260008BE00E943C058BE991E00E94D0028E81D8
:100270009F810E94E302612F8CE00E943C0582EA8C
:1002800091E00E94D002888599850E94FA03612F2F
:100290008DE00E943C058AEA91E00E94D0028A85A6
:1002A0009B850E94FA03612F8EE00E943C0581EB42
:1002B00091E00E94D0028C859D850E94FA03612FF7
:1002C0008FE00E943C0589EB91E00E94D002888D6E
:1002D000998D0E94E302FFEF6F1A7F0A6A96115F01
:1002E000193709F081CF85E20E94020661E083E1BF
:1002F0000E943C058FEB91E00E94D00280910E039A
:1003000090910F030E940A0B892B09F488C086EA9A
:1003100092E00E94D00261E084E10E943C058DEEF3
:1003200091E00E94D00280910A0390910B030E94F9
:100330000A0B892B09F467C086EA92E00E94D0027A
:1003400061E085E10E943C058AE192E00E94D002D2
:1003500080910203909103030E940A0B892B09F4F8
:1003600046C086EA92E00E94D00261E086E10E94E7
:100370003C0585E492E00E94D002809106039091B2
:1003800007030E940A0B892B31F186EA92E00E9452
:10039000D00261E087E10E943C0581E792E00E9483
:1003A000D002C0E0D0E05C9EF0015D9EF00D112413
:1003B000EA5EFC4F808991890E94E30286EA92E01E
:1003C0000E94D0022196C830D10569F788E093E0F9
:1003D0000E940D0AA1CE80910603909107030E940E
:1003E000F10AFC01808190E00E94E302D2CF80916B
:1003F0000203909103030E94F10AFC01808190E0C6
:100400000E94E302B2CF80910A0390910B030E94F5
:10041000F10AFC01808190E00E94E30291CF80917B
:100420000E0390910F030E94F10AFC01808190E07D
:100430000E94E30270CF813609F089CE80910401D9
:1004400090910501009709F482CE0A9790930501D7
:10045000809304017CCE80910201909103010A9661
:10046000909303018093020172CE809102019091DA
:100470000301009709F46BCE0A97909303018093D0
:10048000020165CE82E090E00E94470D01E010E09D
:10049000CAE5D0E084E093E00E94350A8CE093E066
:1004A0000E94D00910930101009300010E94420DA7
:1004B000BE010E94830B0A96909311038093100350
:1004C00080910401909105010E949C098CE093E0C9
:1004D0000E940D0A80E093E00E94570ADBCF80E083
:1004E00093E00E94350A8CE093E00E94D00988E0F6
:1004F00093E00E94D009109201011092000161E086
:1005000082E10E943C0585E20E94020681E892E0B9
:100510000E94D00285EA92E00E94D00280911003EE
:10052000909111030E94E3028091020190910301D6
:100530000E949C0988E093E00E940D0A8CE093E001
:100540000E940D0A84E093E00E94570AC8CF82E01F
:100550008093C0001092C50080E18093C400E1EC5C
:10056000F0E080818861808308958091C000881FB9
:100570008827881F08958091C00087FD02C08FEFF3
:1005800008958091C60008959091C10095FDFCCF1B
:100590009091C00095FFF8CF8093C60081E0089548
:1005A000FC012081222371F031968091C10085FDEC
:1005B000FCCF8091C00085FFF8CF2093C600219129
:1005C0002111F3CF0895CF92DF92EF92FF920F9314
:1005D0001F93CF93DF93CDB7DEB7A0970FB6F894F4
:1005E000DEBF0FBECDBF8C019C01C12CD12C2115CB
:1005F000310509F055C0C114D10409F451C0CC0C27
:10060000DD1CCE0101967C01FC01EC0DFD1D980165
:10061000ADECBCEC0E94740BAC0156954795569519
:10062000479556954795BA01660F771FCA01880FFF
:10063000991F880F991F880F991F680F791F261B14
:10064000370B205D3F4F329322938A01EE15FF0551
:10065000F1F6EC0DFD1D1182108289819A810097BF
:1006600081F0FE0133969091C10095FDFCCF9091F1
:10067000C00095FFF8CF8093C600819191910097BB
:1006800091F7A0960FB6F894DEBF0FBECDBFDF91F5
:10069000CF911F910F91FF90EF90DF90CF90089531
:1006A000ADECBCEC0E94740B9C01369527953695F9
:1006B0002795369527958FEFC81AD80A98CF4F926D
:1006C0005F926F927F928F929F92AF92BF92CF92E2
:1006D000DF92EF92FF920F931F93CF93DF93CDB7EB
:1006E000DEB7C054D1090FB6F894DEBF0FBECDBF40
:1006F000762E672E582E492EC12CD12C3AE0832E0F
:10070000912CA12CB12C611571058105910509F081
:1007100067C0C114D10409F463C0CC0CDD1CCC0C3F
:10072000DD1CCE0101967C018C010C0D1D1D2AE003
:10073000822E912CA12CB12C672D762D852D942DF8
:10074000A50194010E94970BDC01CB01C096A11D6D
:10075000B11DF801B293A293929382938F01722EEE
:10076000632E542E452EEE15FF0531F7EC0DFD1DC1
:10077000108211821282138289819A81AB81BC819D
:100780000097A105B105A1F0FE0135969091C10039
:1007900095FDFCCF9091C00095FFF8CF8093C600E7
:1007A00081919191A191B1910097A105B10571F746
:1007B000C05CDF4F0FB6F894DEBF0FBECDBFDF9138
:1007C000CF911F910F91FF90EF90DF90CF90BF904E
:1007D000AF909F908F907F906F905F904F90089513
:1007E000A50194010E94970BCA01B9012FEFC21A0B
:1007F000D20A89CFCF93DF93CDB7DEB7A0970FB6DC
:10080000F894DEBF0FBECDBF9C0140E050E0211543
:10081000310589F54115510571F1BA01660F771F50
:10082000AE014F5F5F4FFA01E60FF71F14C02E3085
:100830003105B1F190F12F30310561F526E430E05A
:1008400032932293929582958F7089279F70892782
:10085000E417F50741F19C012F7033272C30310547
:1008600099F028F72A30310591F02B30310591F4B9
:1008700022E430E0E5CF329522952F7023273F7098
:1008800023274F5F5F4FC3CF23E430E0D9CF21E46C
:1008900030E0D6CF205D3F4FD3CF24E430E0D0CF3F
:1008A00025E430E0CDCFE60FF71F11821082898159
:1008B0009A81009781F0FE0133969091C10095FDD9
:1008C000FCCF9091C00095FFF8CF8093C600819136
:1008D0009191009791F7A0960FB6F894DEBF0FBEE6
:1008E000CDBFDF91CF910895CF92DF92EF92FF922B
:1008F0000F931F93CF93DF93CDB7DEB7C054D109C9
:100900000FB6F894DEBF0FBECDBF9B01AC0100E077
:1009100010E0211531054105510509F053C00115BD
:10092000110509F44FC0000F111F000F111F9E0188
:100930002F5F3F4FF901E00FF11F24C04EE0C416B6
:10094000D104E104F10409F45FC008F457C04FE09A
:10095000C416D104E104F10409F04AC046E4C42EEF
:10096000D12CE12CF12CF292E292D292C292A4E02C
:100970009695879577956795AA95D1F7E217F3072E
:1009800009F448C06B017C014FE0C422DD24EE2451
:10099000FF244CE0C416D104E104F104E9F070F640
:1009A0004AE0C416D104E104F104E1F04BE0C416BE
:1009B000D104E104F104E1F4B2E4CB2ED12CE12C1A
:1009C000F12CD1CFE4E05695479537952795EA95D8
:1009D000D1F70F5F1F4F9DCFB3E4CB2ED12CE12C6D
:1009E000F12CC1CF41E4C42ED12CE12CF12CBBCF92
:1009F00040E3C40ED11CE11CF11CB5CFA4E4CA2E07
:100A0000D12CE12CF12CAFCF55E4C52ED12CE12C0B
:100A1000F12CA9CFE00FF11F1082118212821382F4
:100A200089819A81AB81BC810097A105B105A1F0B4
:100A3000FE0135969091C10095FDFCCF9091C000CC
:100A400095FFF8CF8093C60081919191A191B191CA
:100A50000097A105B10571F7C05CDF4F0FB6F894A0
:100A6000DEBF0FBECDBFDF91CF911F910F91FF90E1
:100A7000EF90DF90CF900895CF93DF9300D000D018
:100A800000D0CDB7DEB7982F40E050E02DEC9111AB
:100A9000B0C04115510509F4ACC09A01215031098B
:100AA0007DECE4E0F0E0EC0FFD1FE20FF31F879F09
:100AB000912D1124969596959695AAE09A9F801966
:100AC0001124805D8083892F2150310950F7E4E0A3
:100AD000F0E0EC0FFD1FE40FF51F1082862F20E0E1
:100AE00030E09DEC81117CC02115310509F478C0FE
:100AF000C90101975DECE1E0F0E0EC0FFD1FE80FAC
:100B0000F91F659F412D1124469546954695AAE00B
:100B10004A9F60191124605D6083642F019758F724
:100B2000E1E0F0E0EC0FFD1FE20FF31F1082809177
:100B3000C10085FDFCCF8091C00085FFF8CF8BE11F
:100B40008093C6008091C10085FDFCCF8091C000DC
:100B500085FFF8CF8BE58093C6009C81992379F0BF
:100B6000FE0135968091C10085FDFCCF8091C000CB
:100B700085FFF8CF9093C60091919111F3CF8091AA
:100B8000C10085FDFCCF8091C00085FFF8CF8BE3CD
:100B90008093C6009981992379F0FE013296809165
:100BA000C10085FDFCCF8091C00085FFF8CF9093F8
:100BB000C60091919111F3CF8091C10085FDFCCFCA
:100BC0008091C00085FFF8CF88E48093C600269608
:100BD0000FB6F894DEBF0FBECDBFDF91CF91089561
:100BE000899F812D11248695869586952F5F3F4F8D
:100BF00079CF929F912D11249695969596954F5F5A
:100C00005F4F45CFCF93DF9300D01F92CDB7DEB7B4
:100C1000982F40E050E02DEC91115EC04115510538
:100C200009F45AC09A01215031096DECE1E0F0E07D
:100C3000EC0FFD1FE20FF31F869F912D1124969557
:100C4000969596957AE0979F80191124805D808310
:100C5000892F2150310950F7E1E0F0E0EC0FFD1F42
:100C6000E40FF51F10828091C10085FDFCCF8091BB
:100C7000C00085FFF8CF8BE18093C6008091C10052
:100C800085FDFCCF8091C00085FFF8CF8BE5809378
:100C9000C6009981992379F0FE0132968091C100B6
:100CA00085FDFCCF8091C00085FFF8CF9093C600F2
:100CB00091919111F3CF8091C10085FDFCCF80917E
:100CC000C00085FFF8CF8DE68093C6000F900F908F
:100CD0000F90DF91CF910895929F912D11249695B9
:100CE000969596954F5F5F4F97CF8091C10085FD98
:100CF000FCCF8091C00085FFF8CF8BE18093C600C8
:100D00008091C10085FDFCCF8091C00085FFF8CFA8
:100D10008BE58093C6008091C10085FDFCCF80915A
:100D2000C00085FFF8CF82E38093C6008091C100A8
:100D300085FDFCCF8091C00085FFF8CF8AE48093C9
:100D4000C60008957894E22DF32D952D842D772DEE
:100D5000662D09941F920F920FB60F9211242F93B4
:100D60003F934F935F936F937F938F939F93AF9333
:100D7000BF93EF93FF936091E8037091E903809133
:100D8000EA039091EB032091EC033091ED03409145
:100D9000EE035091EF032F5F3F4F4F4F5F4F209374
:100DA000EC033093ED034093EE035093EF030E9466
:100DB000970B2093F0031092F10380E090E04AE15A
:100DC000489FF001499FF00D1124EA5EFC4F2685F3
:100DD0003785232B29F02091F1032F5F2093F10316
:100DE00001968830910561F7FF91EF91BF91AF9126
:100DF0009F918F917F916F915F914F913F912F9133
:100E00000F900FBE0F901F901895EEE6F0E08081D6
:100E10008260808384B5826084BD85B5856085BD30
:100E20008CE987BD89E09DE39093890080938800D9
:100E3000EFE6F0E0808182608083E1E8F0E080818D
:100E40008D6080830895FF27EDE5619370832F9275
:100E50003F924F925F926F927F928F929F92AF924A
:100E6000BF92CF92DF92EF92FF920F931F93CF9397
:100E7000DF93EDE581939083DF91CF911F910F91E7
:100E8000FF90EF90DF90CF90BF90AF909F908F90AA
:100E90007F906F905F904F903F902F900895F894BF
:100EA0008FEF8093E70380E090E02AE1289FF00134
:100EB000299FF00D1124EA5EFC4F178616860196D5
:100EC0008830910599F71092E6031092E80310928A
:100ED000E9031092EA031092EB031092EC031092D4
:100EE000ED031092EE031092EF031092F0031092B4
:100EF000F1030895EF92FF920F931F93CF93DF9327
:100F0000CDB7DEB728970FB6F894DEBF0FBECDBFC2
:100F10009C838B8322EA36E03A83298320E030E009
:100F20008AE1829F8001839F100D11240A5E1C4F6D
:100F3000D8011E96ED91FC911F97EF2BB1F02F5F1A
:100F40003F4F2830310569F788EA92E00E94D002CD
:100F500028960FB6F894DEBF0FBECDBFDF91CF91BC
:100F60001F910F91FF90EF900895F80120838B81DE
:100F70009C81928381831482138284E185835783C9
:100F80004683EE24E394F12CF18AE08A138A128AD4
:100F9000148A158A168A178A118E108ECA014F83F9
:100FA00058876D837E830E94CD0BF80195878487D7
:100FB0004F81588541505109480F591F5387428727
:100FC00051874087F786E6868091E6038F5F80939E
:100FD000E6030084F185E02DCF010197D801199631
:100FE0009C938E931897898180831896ED91FC913C
:100FF0001997CF01019719969C938E9318978A8120
:1010000080831896ED91FC911997CF01019719965D
:101010009C938E9318978B8180831896ED91FC9109
:101020001997CF01019719969C938E9318978C81ED
:1010300080836D817E81FB019B01215F3F4FD80141
:1010400018964D915C911997CA01019719969C9336
:101050008E9318978191DA018C93E217F30779F751
:10106000D8011896ED91FC911997DB011F968C9190
:1010700080836ECF7091E7038091E703883018F08A
:1010800087E08093E7038091E7038F5F87706AE1D1
:1010900004C02F5F3F4F822F87709091E703282F66
:1010A00030E0981759F0629FF001639FF00D112412
:1010B000EA5EFC4F46855785452B59F3629FF00148
:1010C000639FF00D1124EA5EFC4F40895189433043
:1010D0005105F9F24089518942305105D1F2909180
:1010E000E703891769F09AE1929FF001939FF00D51
:1010F0001124EA5EFC4F41E050E0518B408B089593
:1011000046855785452B79F77093E7038FEF089550
:101110000E943A088093E7038091E7038F3FF9F03C
:101120000E94050780E290E00E94CD0B909313038C
:1011300080931203BC01615E7F4F7093150360932F
:101140001403E091E7038AE1E89FF0011124EA5ECD
:10115000FC4F8085918501970E94230708958AEDB1
:1011600092E00C94D00286E193E008950F931F93D0
:10117000CF93DF93E091E7038093E7039AE19E9F8B
:10118000F0011124EA5EFC4F082F10E0909FE0016F
:10119000919FD00D1124CA5EDC4F8DB79EB7439747
:1011A0009187808722853385281B390B2F5F258304
:1011B000808991899C01225031092230310508F43F
:1011C0004CC0019709F44DC08C91838311978C9189
:1011D00084838A859B8528853985821B930B8C5E49
:1011E0008D83198A188A8091EC039091ED03A09168
:1011F000EE03B091EF03892B8A2B8B2BC1F06C8906
:101200007D898E899F896F5F7F4F8F4F9F4F6C8B3A
:101210007D8B8E8B9F8B2091EC033091ED03409161
:10122000EE035091EF030E94970B398F288F8AE1CC
:10123000809FF001819FF00D1124EA5EFC4F8085B4
:1012400091856DB77EB76250710901970E9423079F
:10125000DF91CF911F910F910895ADB7BEB7129650
:10126000B3CFADB7BEB75496AFCF1F920F920FB6A4
:101270000F9211242F933F934F935F936F937F931C
:101280008F939F93AF93BF93EF93FF938091E80366
:101290009091E903A091EA03B091EB030196A11D9F
:1012A000B11D8093E8039093E903A093EA03B09300
:1012B000EB0380E090E06AE141E050E0689FF001DC
:1012C000699FF00D1124EA5EFC4F26853785232B9C
:1012D00071F022893389232B51F0228933892150DF
:1012E0003109338B228B232B11F4518B408B0196C8
:1012F0008830910519F7E091E7038AE1E89FF00152
:101300001124EA5EFC4F81E090E0918B808B0E947B
:101310003A080E94B608FF91EF91BF91AF919F915B
:101320008F917F916F915F914F913F912F910F908E
:101330000FBE0F901F901895E091E7034AE14E9F72
:10134000F0011124EA5EFC4F938B828BE091E7035E
:101350004E9FF0011124EA5EFC4F22E030E0318B19
:10136000208B892B59F4E091E7034E9FF001112463
:10137000EA5EFC4F81E090E0918B808B0E943A08FE
:101380000C94B608CF93DF93EC011982188288E0A1
:1013900090E00E94830A9B838A83DF91CF91089516
:1013A000DF92EF92FF920F931F93CF93DF93EC01A5
:1013B000F8948881998121E030E0398328837894FA
:1013C000892B19F18AE1D82E93E0E92EF12C01E066
:1013D00010E0F8946091E703D69EB00111246A5E94
:1013E0007C4FFB01F18AE08A8A819B810E94A40ADA
:1013F00078940E943A080E94B608F89488819981EE
:10140000198308837894892B21F7DF91CF911F915D
:101410000F91FF90EF90DF900895CF93DF93EC0151
:10142000198218828A819B810E940A0B892B49F4B8
:101430008A819B810E94CC0A21E030E0FC01318B43
:10144000208BDF91CF910895CF93DF93EC01772725
:1014500067FD70957983688388E090E00E94830A35
:101460009B838A83DF91CF910895FC012081318194
:10147000215031093183208337FF0895F89460911A
:10148000E7038AE1689FB00111246A5E7C4F83E024
:1014900090E0DB0151969C938E93509782819381CB
:1014A0000E94A40A78940E943A080C94B608FC01A1
:1014B000208131812F5F3F4F318320831216130625
:1014C0000CF40895828193810E94CC0A21E030E0DF
:1014D000FC01318B208B0895FC01208131812F5F2D
:1014E0003F4F31832083121613060CF40895828136
:1014F00093810E94CC0A21E030E0FC01318B208BEB
:1015000080810C94B6080F931F93CF93DF938C01C7
:101510008AE090E00E94CD0BEC01C801880F991F72
:101520000E94CD0B998388831B821A828FEF9FEFD5
:101530009D838C831F821E8219870887CE01DF91CD
:10154000CF911F910F910895CF93DF93FC01EB0191
:10155000268137816085718526173707C4F4848119
:10156000958101960E94830B95838483880F991F30
:10157000A081B181A80FB91FCD93DC932F5F3F4F9E
:101580003783268381E090E0DF91CF91089580E05A
:1015900090E0DF91CF910895CF93FC0126813781B0
:1015A00012161306DCF482819381AC01440F551F9F
:1015B000A081B181A40FB51FCC9111964C910196D9
:1015C000608571850E94830B93838283215031094A
:1015D000378326838C2F942FCF91089580E090E05D
:1015E000FBCFFC01868197811816190664F482816D
:1015F0009381880F991F0190F081E02DE80FF91F6A
:1016000080819181089580E090E00895FC018681B9
:101610009781089521E030E0FC0186819781892B34
:1016200011F020E030E0C9010895CF93DF93EC0181
:10163000888199810E94650CCE01DF91CF910C9435
:10164000650CCF93DF9300D0CDB7DEB784EF91E088
:101650009A8389830E944F070E94A7020E94750601
:101660008CE093E00E94C20988E093E00E94C209E6
:1016700061E084E093E00E94240A60E080E093E06F
:101680000E94240A4AED50E0BE016F5F7F4F84E55F
:1016900090E00E947A0748ED50E060E070E083E55A
:1016A00090E00E947A0748ED50E060E070E082E44C
:1016B00092E00E947A0748ED50E060E070E08FE62B
:1016C00092E00E947A0748ED50E060E070E086E723
:1016D00090E00E947A070E94880880E090E00F90D6
:1016E0000F90DF91CF910895A29FB001B39FC001E9
:1016F000A39F700D811D1124911DB29F700D811D3E
:101700001124911D089597FB072E16F4009407D01D
:1017100077FD09D00E94B90B07FC05D03EF49095E7
:1017200081959F4F0895709561957F4F0895A1E22F
:101730001A2EAA1BBB1BFD010DC0AA1FBB1FEE1F4B
:10174000FF1FA217B307E407F50720F0A21BB30B96
:10175000E40BF50B661F771F881F991F1A9469F712
:1017600060957095809590959B01AC01BD01CF016E
:101770000895AA1BBB1B51E107C0AA1FBB1FA617D8
:10178000B70710F0A61BB70B881F991F5A95A9F72A
:1017900080959095BC01CD010895CF93DF93823061
:1017A000910510F482E090E0E091F403F091F503EC
:1017B00020E030E0A0E0B0E0309739F14081518185
:1017C00048175907B8F04817590771F48281938177
:1017D000109729F013969C938E9312972CC0909398
:1017E000F5038093F40327C02115310531F042172A
:1017F000530718F0A901DB0101C0EF019A01BD01F7
:10180000DF010280F381E02DD7CF21153105F9F0FA
:10181000281B390B2430310580F48A819B816115A6
:10182000710521F0FB019383828304C09093F5033B
:101830008093F403FE01329644C0FE01E20FF31FD1
:101840008193919322503109398328833AC02091A2
:10185000F2033091F303232B41F4209108013091DE
:1018600009013093F3032093F20320910601309194
:1018700007012115310541F42DB73EB740910A010A
:1018800050910B01241B350BE091F203F091F3030F
:10189000E217F307A0F42E1B3F0B2817390778F047
:1018A000AC014E5F5F4F2417350748F04E0F5F1FA6
:1018B0005093F3034093F2038193919302C0E0E0CD
:1018C000F0E0CF01DF91CF910895CF93DF930097A0
:1018D00009F487C0FC01329713821282C091F4038D
:1018E000D091F503209781F420813181280F391F91
:1018F0008091F2039091F3038217930779F5F093A7
:10190000F303E093F2036DC0DE0120E030E0AE1798
:10191000BF0750F412964D915C9113979D014115AC
:10192000510509F1DA01F3CFB383A28340815181DC
:10193000840F951F8A179B0771F48D919C911197C5
:10194000840F951F02969183808312968D919C91AE
:101950001397938382832115310529F4F093F503BE
:10196000E093F4033EC0D9011396FC93EE931297D3
:101970004D915D91A40FB51FEA17FB0779F48081A3
:101980009181840F951F0296D90111969C938E9395
:101990008281938113969C938E931297E0E0F0E0FE
:1019A0008A819B81009719F0FE01EC01F9CFCE01ED
:1019B000029628813981820F931F2091F203309182
:1019C000F3032817390769F4309729F41092F503C7
:1019D0001092F40302C013821282D093F303C093D7
:1019E000F203DF91CF9108958F929F92AF92BF92B1
:1019F000CF92DF92EF92FF92CF93DF93EC01688159
:101A000079818A819B81611571058105910521F498
:101A100064E279ED8BE597E02DE133EF41E050E0B2
:101A20000E94650D49015A019B01AC01A7EAB1E48E
:101A30000E94520D6B017C01ACEEB4EFA501940144
:101A40000E94600DC60ED71EE81EF91EF7FE06C0E6
:101A500081E0C81AD108E10880E8F80AC882D98272
:101A6000EA82FB82C6019F77DF91CF91FF90EF90D2
:101A7000DF90CF90BF90AF909F908F9008950E947D
:101A8000F40C08958CE091E00E94F40C0895A0E01D
:101A9000B0E080930C0190930D01A0930E01B093E0
:101AA0000F0108950E94740BA59F900DB49F900D97
:101AB000A49F800D911D11240895B7FF0C94520D21
:101AC0000E94520D821B930B0895052E97FB1EF466
:101AD00000940E947C0D57FD07D00E94970B07FCD5
:101AE00003D04EF40C947C0D509540953095219583
:101AF0003F4F4F4F5F4F089590958095709561953A
:0C1B00007F4F8F4F9F4F0895F894FFCF48
:101B0C000100640064000000F603200001000000E6
:101B1C0053797374656D2053746174733A20005358
:101B2C00797374656D2054696D653A2000496E7443
:101B3C006572727570747320506572205365636F93
:101B4C006E643A20004E756D626572204F662054AB
:101B5C0068726561647320496E20546865205379FE
:101B6C007374656D3A20005065722054687265611B
:101B7C006420496E666F726D6174696F6E3A2000F5
:101B8C0069643A20006670633A20307800697063AB
:101B9C003A203078007573673A200073697A653A99
:101BAC002000746F733A2030780062733A203078DA
:101BBC0000656E643A203078007270733A200074BD
:101BCC0068726561642069642063757272656E74F5
:101BDC006C79206F6E206275666665725F6C6F63E0
:101BEC006B20776169746C6973743A200074687245
:101BFC006561642069642063757272656E746C79BA
:101C0C00206F6E207072696E745F6C6F636B2077DF
:101C1C006169746C6973743A2000746872656164EC
:101C2C002069642063757272656E746C79206F6EB6
:101C3C002073656D2066756C6C20776169746C69B6
:101C4C0073743A200074687265616420696420635F
:101C5C00757272656E746C79206F6E2073656D2071
:101C6C00656D70747920776169746C6973743A204E
:101C7C0000746872656164207374617465733A20D2
:101C8C000042756666657220636F6E74656E747360
:101C9C0020636F6E73756D656420616E6420707265
:101CAC00696E7465643A20004572726F723A204D09
:101CBC006178696D756D20616D6F756E74206F66DE
:101CCC002074687265616473206861732062656555
:101CDC006E2072656163686564004572726F723A5A
:101CEC00204E6F206163746976652074687265613B
:101CFC00642063616E20626520666F756E640000FF
:00000001FF
