:100000000C9434000C9451000C9451000C94510049
:100010000C9451000C9451000C9451000C9451001C
:100020000C9451000C9451000C9451000C943B051D
:100030000C9451000C9451000C9426070C94510020
:100040000C9451000C9451000C9451000C945100EC
:100050000C9451000C9451000C9451000C945100DC
:100060000C9451000C94510011241FBECFEFD8E026
:10007000DEBFCDBF12E0A0E0B1E0E4EFF5E102C0E9
:1000800005900D92A434B107D9F712E0A4E4B2E0D0
:1000900001C01D92A83EB107E1F70E9438090C94F7
:1000A000F80A0C940000259A2D982FEF89E698E124
:1000B000215080409040E1F700C000002D9A2FEFC2
:1000C00089E698E1215080409040E1F700C00000AF
:1000D000EBCF0E94380186E091E00E946101FBCFE6
:1000E0000E941B084C010E9438010E940605C401B1
:1000F0008A569F4F5C01F401E656FF4F6F01C40121
:1001000085569F4F7C0187E0482E512C9FEFE9E6F2
:10011000F8E19150E040F040E1F700C0000085E2D6
:100120000E94930461E081E00E94CD038BE091E0A6
:100130000E94610161E082E00E94CD038AE191E0CA
:100140000E946101F50160817181828193810E9429
:10015000F00161E083E00E94CD0388E291E00E941B
:100160006101F601808190E00E94740161E084E009
:100170000E94CD0380E491E00E946101F70180813B
:1001800090E00E94740161E087E00E94CD0382E666
:1001900091E00E946101E40111E0612C712C08C022
:1001A000FFEF6F1A7F0A6296125E113F09F4AECF1D
:1001B0008C859D85892BA1F3C301B2010E946C0936
:1001C000815E0E949304612F88E00E94CD038BE73B
:1001D00091E00E946101888190E00E947401612F8A
:1001E00089E00E94CD0387E891E00E946101898146
:1001F0009A810E948B02612F8AE00E94CD0385E9DB
:1002000091E00E9461018B8190E00E947401612F56
:100210008BE00E94CD0383EA91E00E9461018C8112
:100220009D810E947401612F8CE00E94CD0386EBBA
:1002300091E00E9461018E819F810E948B02612F5B
:100240008DE00E94CD038FEC91E00E9461018885D2
:1002500099850E948B02612F8EE00E94CD038EED66
:1002600091E00E9461018A859B850E948B0298CF54
:1002700082E08093C0001092C50080E18093C400AA
:10028000E1ECF0E080818861808308958091C00076
:10029000881F8827881F08958091C00087FD02C0AD
:1002A0008FEF08958091C60008959091C10095FD4B
:1002B000FCCF9091C00095FFF8CF8093C60081E0FD
:1002C0000895FC012081222371F031968091C100B4
:1002D00085FDFCCF8091C00085FFF8CF2093C6003C
:1002E00021912111F3CF0895CF92DF92EF92FF92E7
:1002F0000F931F93CF93DF93CDB7DEB7A0970FB6C1
:10030000F894DEBF0FBECDBF8C019C01C12CD12C57
:100310002115310509F055C0C114D10409F451C0AB
:10032000CC0CDD1CCE0101967C01FC01EC0DFD1D09
:100330009801ADECBCEC0E945D09AC015695479567
:100340005695479556954795BA01660F771FCA018E
:10035000880F991F880F991F880F991F680F791FA1
:10036000261B370B205D3F4F329322938A01EE15F7
:10037000FF05F1F6EC0DFD1D1182108289819A8135
:10038000009781F0FE0133969091C10095FDFCCF5E
:100390009091C00095FFF8CF8093C6008191919114
:1003A000009791F7A0960FB6F894DEBF0FBECDBFB1
:1003B000DF91CF911F910F91FF90EF90DF90CF9041
:1003C0000895ADECBCEC0E945D099C013695279523
:1003D00036952795369527958FEFC81AD80A98CF66
:1003E0004F925F926F927F928F929F92AF92BF9245
:1003F000CF92DF92EF92FF920F931F93CF93DF93F1
:10040000CDB7DEB7C054D1090FB6F894DEBF0FBE2A
:10041000CDBF762E672E582E492EC12CD12C3AE016
:10042000832E912CA12CB12C6115710581059105AC
:1004300009F067C0C114D10409F463C0CC0CDD1C01
:10044000CC0CDD1CCE0101967C018C010C0D1D1D18
:100450002AE0822E912CA12CB12C672D762D852D92
:10046000942DA50194010E948009DC01CB01C09666
:10047000A11DB11DF801B293A293929382938F01B3
:10048000722E632E542E452EEE15FF0531F7EC0D1E
:10049000FD1D108211821282138289819A81AB81A3
:1004A000BC810097A105B105A1F0FE0135969091A0
:1004B000C10095FDFCCF9091C00095FFF8CF8093CF
:1004C000C60081919191A191B1910097A105B105CB
:1004D00071F7C05CDF4F0FB6F894DEBF0FBECDBF23
:1004E000DF91CF911F910F91FF90EF90DF90CF9010
:1004F000BF90AF909F908F907F906F905F904F9044
:100500000895A50194010E948009CA01B9012FEF45
:10051000C21AD20A89CFCF93DF93CDB7DEB7A097A7
:100520000FB6F894DEBF0FBECDBF9C0140E050E097
:100530002115310589F54115510571F1BA01660F93
:10054000771FAE014F5F5F4FFA01E60FF71F14C030
:100550002E303105B1F190F12F30310561F526E4EF
:1005600030E032932293929582958F7089279F7005
:100570008927E417F50741F19C012F7033272C30B0
:10058000310599F028F72A30310591F02B303105EB
:1005900091F422E430E0E5CF329522952F702327A5
:1005A0003F7023274F5F5F4FC3CF23E430E0D9CFA5
:1005B00021E430E0D6CF205D3F4FD3CF24E430E0BC
:1005C000D0CF25E430E0CDCFE60FF71F11821082A7
:1005D00089819A81009781F0FE0133969091C10044
:1005E00095FDFCCF9091C00095FFF8CF8093C60099
:1005F00081919191009791F7A0960FB6F894DEBF84
:100600000FBECDBFDF91CF910895CF92DF92EF92D1
:10061000FF920F931F93CF93DF93CDB7DEB7C054F4
:10062000D1090FB6F894DEBF0FBECDBF9B01AC0160
:1006300000E010E0211531054105510509F053C0D6
:100640000115110509F44FC0000F111F000F111FF4
:100650009E012F5F3F4FF901E00FF11F24C04EE0D4
:10066000C416D104E104F10409F45FC008F457C0D2
:100670004FE0C416D104E104F10409F04AC046E495
:10068000C42ED12CE12CF12CF292E292D292C292A1
:10069000A4E09695879577956795AA95D1F7E21787
:1006A000F30709F448C06B017C014FE0C422DD244C
:1006B000EE24FF244CE0C416D104E104F104E9F077
:1006C00070F64AE0C416D104E104F104E1F04BE015
:1006D000C416D104E104F104E1F4B2E4CB2ED12C30
:1006E000E12CF12CD1CFE4E056954795379527952D
:1006F000EA95D1F70F5F1F4F9DCFB3E4CB2ED12CDE
:10070000E12CF12CC1CF41E4C42ED12CE12CF12CF1
:10071000BBCF40E3C40ED11CE11CF11CB5CFA4E457
:10072000CA2ED12CE12CF12CAFCF55E4C52ED12C03
:10073000E12CF12CA9CFE00FF11F1082118212825F
:10074000138289819A81AB81BC810097A105B10593
:10075000A1F0FE0135969091C10095FDFCCF9091DE
:10076000C00095FFF8CF8093C60081919191A1912F
:10077000B1910097A105B10571F7C05CDF4F0FB6CD
:10078000F894DEBF0FBECDBFDF91CF911F910F91C7
:10079000FF90EF90DF90CF900895CF93DF9300D03C
:1007A00000D000D0CDB7DEB7982F40E050E02DEC60
:1007B0009111B0C04115510509F4ACC09A01215006
:1007C00031097DECE4E0F0E0EC0FFD1FE20FF31FD8
:1007D000879F912D1124969596959695AAE09A9FBC
:1007E00080191124805D8083892F2150310950F7B1
:1007F000E4E0F0E0EC0FFD1FE40FF51F1082862F00
:1008000020E030E09DEC81117CC02115310509F418
:1008100078C0C90101975DECE1E0F0E0EC0FFD1F4D
:10082000E80FF91F659F412D112446954695469581
:10083000AAE04A9F60191124605D6083642F0197CC
:1008400058F7E1E0F0E0EC0FFD1FE20FF31F10821C
:100850008091C10085FDFCCF8091C00085FFF8CF5D
:100860008BE18093C6008091C10085FDFCCF809113
:10087000C00085FFF8CF8BE58093C6009C8199234B
:1008800079F0FE0135968091C10085FDFCCF809105
:10089000C00085FFF8CF9093C60091919111F3CFDE
:1008A0008091C10085FDFCCF8091C00085FFF8CF0D
:1008B0008BE38093C6009981992379F0FE013296EB
:1008C0008091C10085FDFCCF8091C00085FFF8CFED
:1008D0009093C60091919111F3CF8091C10085FD55
:1008E000FCCF8091C00085FFF8CF88E48093C600DC
:1008F00026960FB6F894DEBF0FBECDBFDF91CF9125
:100900000895899F812D11248695869586952F5F60
:100910003F4F79CF929F912D11249695969596955C
:100920004F5F5F4F45CFCF93DF9300D01F92CDB77E
:10093000DEB7982F40E050E02DEC91115EC04115DC
:10094000510509F45AC09A01215031096DECE1E0DA
:10095000F0E0EC0FFD1FE20FF31F869F912D112495
:100960009695969596957AE0979F80191124805DCB
:100970008083892F2150310950F7E1E0F0E0EC0F3E
:10098000FD1FE40FF51F10828091C10085FDFCCF93
:100990008091C00085FFF8CF8BE18093C6008091E5
:1009A000C10085FDFCCF8091C00085FFF8CF8BE5AD
:1009B0008093C6009981992379F0FE013296809147
:1009C000C10085FDFCCF8091C00085FFF8CF9093DA
:1009D000C60091919111F3CF8091C10085FDFCCFAC
:1009E0008091C00085FFF8CF8DE68093C6000F9000
:1009F0000F900F90DF91CF910895929F912D112428
:100A00009695969596954F5F5F4F97CF8091C100D1
:100A100085FDFCCF8091C00085FFF8CF8BE18093EE
:100A2000C6008091C10085FDFCCF8091C00085FF8C
:100A3000F8CF8BE58093C6008091C10085FDFCCF87
:100A40008091C00085FFF8CF82E38093C60080913B
:100A5000C10085FDFCCF8091C00085FFF8CF8AE4FE
:100A60008093C60008957894E22DF32D952D842D62
:100A7000772D662D09941F920F920FB60F921124B5
:100A80002F933F938F939F93AF93BF93EF93FF93D6
:100A90008091DE029091DF02A091E002B091E1022C
:100AA0000196A11DB11D8093DE029093DF02A093F9
:100AB000E002B093E10284E68093E2021092E30246
:100AC00080E090E09C01220F331FF901EE0FFF1F21
:100AD000EE0FFF1FEE0FFF1FE20FF31FE85BFD4F4E
:100AE00024853585232B29F02091E3022F5F209365
:100AF000E30201968830910529F7FF91EF91BF91AC
:100B0000AF919F918F913F912F910F900FBE0F90BA
:100B10001F901895EEE6F0E080818260808384B5B6
:100B2000826084BD85B5856085BD8CE987BD89E01F
:100B30009DE39093890080938800EFE6F0E0808148
:100B400082608083E1E8F0E080818D608083089599
:100B5000FF27EDE5619370832F923F924F925F9252
:100B60006F927F928F929F92AF92BF92CF92DF92BD
:100B7000EF92FF920F931F93CF93DF93EDE5819355
:100B80009083DF91CF911F910F91FF90EF90DF90B5
:100B9000CF90BF90AF909F908F907F906F905F901D
:100BA0004F903F902F9008958FEF8093D90280E06F
:100BB00090E09C01220F331FF901EE0FFF1FEE0F93
:100BC000FF1FEE0FFF1FE20FF31FE85BFD4F1586BF
:100BD000148601968830910561F71092D802109220
:100BE000DA021092DB021092DC021092DD02109207
:100BF000DE021092DF021092E0021092E1021092E7
:100C0000E2021092E302F8940895EF92FF920F939C
:100C10001F93CF93DF93CDB7DEB728970FB6F89425
:100C2000DEBF0FBECDBF9C838B8323E335E03A83C9
:100C3000298320E030E0F901EE0FFF1F8F01000F44
:100C4000111F000F111F000F111F0E0F1F1F085B38
:100C50001D4FD8011C96ED91FC911D97EF2BB1F023
:100C60002F5F3F4F2830310531F78CEE91E00E9425
:100C7000610128960FB6F894DEBF0FBECDBFDF919D
:100C8000CF911F910F91FF90EF900895F80120836D
:100C90008B819C819283818384E183835583448308
:100CA000EE24E394F12CF786E686118A108ACA01B5
:100CB0004F8358876D837E830E94B609D8011B96A7
:100CC0009C938E931A974F81588541505109480F34
:100CD000591F19965C934E93189717965C934E93F1
:100CE00016971D96FC92EE921C978091D8028F5F0A
:100CF0008093D8021696ED91FC911797CF0101973A
:100D000017969C938E931697898180831696ED9102
:100D1000FC911797CF01019717969C938E93169786
:100D20008A8180831696ED91FC911797CF010197E8
:100D300017969C938E9316978B8180831696ED91D0
:100D4000FC911797CF01019717969C938E93169756
:100D50008C8180836D817E81FB019B01215F3F4FF0
:100D6000D80116964D915C911797CA010197179675
:100D70009C938E9316978191DA018C93E217F30777
:100D800079F7D8011696ED91FC911797DB011F9624
:100D90008C9180836ECFA091D9028091D902883046
:100DA00018F087E08093D9028091D9028F5F877015
:100DB00004C04F5F5F4F842F87709091D902482FF6
:100DC00050E09A01220F331F981779F0F901EE0FC6
:100DD000FF1FEE0FFF1FEE0FFF1FE20FF31FE85B79
:100DE000FD4F64857585672B21F3F901EE0FFF1F19
:100DF000EE0FFF1FEE0FFF1FE20FF31FE85BFD4F2B
:100E00006685778563307105A1F2668577856230E6
:100E1000710579F29091D902891781F0F901EE0FED
:100E2000FF1FEE0FFF1FEE0FFF1FE20FF31FE85B28
:100E3000FD4F21E030E0378726870895648575856A
:100E4000672B61F7A093D9028FEF08951F920F923D
:100E50000FB60F9211242F933F934F935F936F938D
:100E60007F938F939F93AF93BF93EF93FF93CF9312
:100E7000DF9300D0CDB7DEB78091D9028A830E947C
:100E8000CB068093D90289838A8190E0880F991FCD
:100E9000FC01EE0FFF1FEE0FFF1FEE0FFF1FE80F0D
:100EA000F91FE85BFD4F898190E0880F991FDC01F5
:100EB000AA0FBB1FAA0FBB1FAA0FBB1FA80FB91FEA
:100EC000A85BBD4F8DB79EB7439797838683808578
:100ED000918526813781821B930B8F5F838381E00D
:100EE00090E097878687808591852DB73EB7821BD6
:100EF000930B13968C9313971F961C921E921E971A
:100F00008091DA029091DB02A091DC02B091DD02C7
:100F10000196A11DB11D8093DA029093DB02A0938C
:100F2000DC02B093DD0280E090E041E050E09C0103
:100F3000220F331FF901EE0FFF1FEE0FFF1FEE0F01
:100F4000FF1FE20FF31FE85BFD4F24853585232B40
:100F500071F020893189232B51F02089318921506A
:100F60003109318B208B232B11F45787468701964B
:100F700088309105E1F66DB77EB7898190E0880FE2
:100F8000991FFC01EE0FFF1FEE0FFF1FEE0FFF1F5B
:100F9000E80FF91FE85BFD4F868197816250710968
:100FA00001970E94A8050F900F90DF91CF91FF91BC
:100FB000EF91BF91AF919F918F917F916F915F91D1
:100FC0004F913F912F910F900FBE0F901F9018954A
:100FD0000E94CB068093D9028091D9028F3F39F1CC
:100FE0000E948A0580E290E00E94B6099093450233
:100FF00080934402BC01615E7F4F7093470260930F
:1010000046022091D90230E0220F331FF901EE0F82
:10101000FF1FEE0FFF1FEE0FFF1FE20FF31FE85B36
:10102000FD4F8681978101970E94A80508958EE162
:1010300092E00C94610188E492E00895A9EDB2E099
:101040002C9130E0220F331FF901EE0FFF1FEE0F3E
:10105000FF1FEE0FFF1FE20FF31FE85BFD4F918BA9
:10106000808B8C9190E0880F991FFC01EE0FFF1F81
:10107000EE0FFF1FEE0FFF1FE80FF91FE85BFD4F9C
:1010800082E090E097878687089562E070E088E0CC
:1010900090E00C945708FC0120813181232B31F41E
:1010A00021E030E0FC01318320830895FFCFEF92EF
:1010B000FF920F931F93CF93DF938C017B018CE002
:1010C00090E00E94B609EC010E9DC0010F9D900DAD
:1010D0001E9D900D11240E94B609998388831B825E
:1010E0001A828FEF9FEF9D838C831F821E82198748
:1010F0000887FB86EA86CE01DF91CF911F910F9181
:10110000FF90EF900895CF93DF93EC01FB0168858A
:1011100079858E819F81861797072CF080E090E07B
:10112000DF91CF9108958C819D8101960E946C0979
:101130009D838C834A855B85849F9001859F300DBC
:10114000949F300D112488819981BF01820F931FD4
:101150000E94DD0A8E819F8101969F838E8381E0AC
:1011600090E0DF91CF910895EF92FF920F931F933C
:10117000CF93DF93EC018E819F81181619066CF5D1
:101180000A851B85C8010E94B6097C014A815B81E2
:10119000049F9001059F300D149F300D112468812C
:1011A0007981620F731FA8010E94DD0A8A819B81E9
:1011B0000196688579850E946C099B838A832E81BC
:1011C0003F81215031093F832E83C701DF91CF91A9
:1011D0001F910F91FF90EF90089580E090E0F6CF7F
:1011E000EF92FF920F931F93CF93DF93EC018E81C9
:1011F0009F8118161906F4F40A851B85C8010E9400
:10120000B6097C014A815B81049F9001059F300DE6
:10121000149F300D112468817981620F731FA8011A
:101220000E94DD0AC701DF91CF911F910F91FF90BE
:10123000EF90089580E090E0F6CFFC0186819781E1
:10124000089521E030E0FC0186819781892B11F01F
:1012500020E030E0C9010895CF93DF93EC0188814D
:1012600099810E944E0ACE01DF91CF910C944E0AD3
:10127000CF93DF9300D0CDB7DEB784EF91E09A83B0
:1012800089830E94D4054AED50E0BE016F5F7F4F15
:1012900083E590E00E94050648ED50E060E070E0D4
:1012A00089E690E00E9405060E94E80780E090E051
:1012B0000F900F90DF91CF910895A29FB001B39F3F
:1012C000C001A39F700D811D1124911DB29F700D4F
:1012D000811D1124911D089597FB072E16F400948B
:1012E00007D077FD09D00E94A20907FC05D03EF483
:1012F000909581959F4F0895709561957F4F0895C2
:10130000A1E21A2EAA1BBB1BFD010DC0AA1FBB1F09
:10131000EE1FFF1FA217B307E407F50720F0A21B7B
:10132000B30BE40BF50B661F771F881F991F1A94E8
:1013300069F760957095809590959B01AC01BD0112
:10134000CF010895AA1BBB1B51E107C0AA1FBB1FF9
:10135000A617B70710F0A61BB70B881F991F5A9541
:10136000A9F780959095BC01CD010895CF93DF93A7
:101370008230910510F482E090E0E091E602F09175
:10138000E70220E030E0A0E0B0E0309739F14081A2
:10139000518148175907B8F04817590771F48281ED
:1013A0009381109729F013969C938E9312972CC0DB
:1013B0009093E7028093E60227C02115310531F0B2
:1013C0004217530718F0A901DB0101C0EF019A0190
:1013D000BD01DF010280F381E02DD7CF211531055A
:1013E000F9F0281B390B2430310580F48A819B8168
:1013F0006115710521F0FB019383828304C09093F2
:10140000E7028093E602FE01329644C0FE01E20F3D
:10141000F31F8193919322503109398328833AC075
:101420002091E4023091E502232B41F42091020146
:10143000309103013093E5022093E40220910001F2
:10144000309101012115310541F42DB73EB740918E
:10145000040150910501241B350BE091E402F09149
:10146000E502E217F307A0F42E1B3F0B28173907FC
:1014700078F0AC014E5F5F4F2417350748F04E0FF0
:101480005F1F5093E5024093E4028193919302C061
:10149000E0E0F0E0CF01DF91CF910895CF93DF93AB
:1014A000009709F487C0FC01329713821282C09121
:1014B000E602D091E702209781F420813181280F44
:1014C000391F8091E4029091E5028217930779F524
:1014D000F093E502E093E4026DC0DE0120E030E02D
:1014E000AE17BF0750F412964D915C9113979D0172
:1014F0004115510509F1DA01F3CFB383A28340818D
:101500005181840F951F8A179B0771F48D919C91CF
:101510001197840F951F02969183808312968D9167
:101520009C911397938382832115310529F4F093BD
:10153000E702E093E6023EC0D9011396FC93EE93D6
:1015400012974D915D91A40FB51FEA17FB0779F42F
:1015500080819181840F951F0296D90111969C93E9
:101560008E938281938113969C938E931297E0E0E1
:10157000F0E08A819B81009719F0FE01EC01F9CF20
:10158000CE01029628813981820F931F2091E402B7
:101590003091E5022817390769F4309729F4109241
:1015A000E7021092E60202C013821282D093E50293
:1015B000C093E402DF91CF9108956817790768F42A
:1015C000FB01DC01E40FF51FA40FB51F02C0029060
:1015D0000E9241505040D8F708950C94EF0AFB0149
:1015E000DC0102C001900D9241505040D8F708959F
:0415F000F894FFCF9D
:1015F4000000E8022000666F6F2000537973746561
:101604006D2053746174733A200053797374656D5B
:101614002054696D653A2000496E74657272757064
:10162400747320506572205365636F6E643A2000B2
:101634004E756D626572204F6620546872656164F0
:101644007320496E205468652053797374656D3A2C
:1016540020005065722054687265616420496E668A
:101664006F726D6174696F6E3A20005468726561BF
:10167400642049443A2000546872656164205043F0
:101684003A20307800537461636B20557361676549
:101694003A2000546F74616C20537461636B20535F
:1016A400697A653A200043757272656E7420546FCE
:1016B40070204F6620537461636B3A203078005376
:1016C4007461636B20426173653A2030780053740F
:1016D40061636B20456E643A203078004572726F06
:1016E400723A204D6178696D756D20616D6F756E0C
:1016F40074206F6620746872656164732068617316
:10170400206265656E207265616368656400457278
:10171400726F723A204E6F2061637469766520742B
:1017240068726561642063616E20626520666F750E
:041734006E640000DF
:00000001FF
