:100000000C9434000C9451000C9451000C94510049
:100010000C9451000C9451000C9451000C9451001C
:100020000C9451000C9451000C9451000C9451000C
:100030000C9451000C9451000C94E8050C94510060
:100040000C9451000C9451000C9451000C945100EC
:100050000C9451000C9451000C9451000C945100DC
:100060000C9451000C94510011241FBECFEFD8E026
:10007000DEBFCDBF11E0A0E0B1E0E0EFFFE002C0E5
:1000800005900D92A836B107D9F711E0A8E6B1E0C6
:1000900001C01D92AA3EB107E1F70E944F060C94E1
:1000A000F6070C940000259A2D98009769F020E03F
:1000B00030E0EFE9FFE03197F1F700C000002F5F7B
:1000C0003F4F28173907A9F7259A2D9A2FEF33EDBF
:1000D00040E3215030404040E1F700C00000E3CF52
:1000E0000E9480002FEF83ED90E3215080409040EC
:1000F000E1F700C0000088E091E00E94A900F2CF83
:1001000082E08093C0001092C50080E18093C4001B
:10011000E1ECF0E080818861808308958091C000E7
:10012000881F8827881F08958091C00087FD02C01E
:100130008FEF08958091C60008959091C10095FDBC
:10014000FCCF9091C00095FFF8CF8093C60081E06E
:100150000895FC012081222371F031968091C10025
:1001600085FDFCCF8091C00085FFF8CF2093C600AD
:1001700021912111F3CF0895CF92DF92EF92FF9258
:100180000F931F93CF93DF93CDB7DEB7A0970FB632
:10019000F894DEBF0FBECDBF582F492F282F392F1F
:1001A000C12CD12C2115310509F05CC0C114D1043A
:1001B00009F458C0CC0CDD1CEE24E394F12CEC0EB9
:1001C000FD1E87010C0D1D1DE52FF42F9F01ADECC9
:1001D000BCEC0E94760696958795969587959695A0
:1001E0008795AC01440F551F9C01220F331F220F2E
:1001F000331F220F331F420F531F9F01241B350B48
:10020000205D3F4FF801329322938F01FC010E15C0
:100210001F05E1F6F801EC0DFD1D118210828981A8
:100220009A81009781F0FE0133969091C10095FD6F
:10023000FCCF9091C00095FFF8CF8093C6008191CC
:100240009191009791F7A0960FB6F894DEBF0FBE7C
:10025000CDBFDF91CF911F910F91FF90EF90DF9075
:10026000CF900895ADECBCEC0E9476069C013695CB
:10027000279536952795369527958FEFC81AD80A72
:1002800091CF4F925F926F927F928F929F92AF9297
:10029000BF92CF92DF92EF92FF920F931F93CF9373
:1002A000DF93CDB7DEB7C054D1090FB6F894DEBFE7
:1002B0000FBECDBF4B015C019B01AC01C12CD12C09
:1002C0006AE0462E512C612C712C21153105410517
:1002D000510509F065C0C114D10409F461C0CC0C0A
:1002E000DD1CCC0CDD1CEE24E394F12CEC0EFD1E89
:1002F00087010C0D1D1DB401C5012AE0822E912C31
:10030000A12CB12CA50194010E948206DC01CB0135
:10031000C096A11DB11DF801B293A293929382934E
:100320008F01B901CA01EE15FF0561F7EC0DFD1D46
:10033000108211821282138289819A81AB81BC81E1
:100340000097A105B105A1F0FE0135969091C1007D
:1003500095FDFCCF9091C00095FFF8CF8093C6002B
:1003600081919191A191B1910097A105B10571F78A
:10037000C05CDF4F0FB6F894DEBF0FBECDBFDF917C
:10038000CF911F910F91FF90EF90DF90CF90BF9092
:10039000AF909F908F907F906F905F904F90089557
:1003A000CA01B901A30192010E9482068FEFC81A07
:1003B000D80A8BCFCF93DF93CDB7DEB7A0970FB618
:1003C000F894DEBF0FBECDBF9C0140E050E0211588
:1003D000310509F057C04115510509F453C0BA0160
:1003E000660F771FAE014F5F5F4FFA01E60FF71FF1
:1003F0009C01C9018F7099278C30910509F44EC07A
:10040000B8F58A30910509F44FC08B30910569F138
:10041000C09692938293329522952F7023273F7036
:100420002327E417F50729F7E60FF71F118210823B
:1004300089819A81009781F0FE0133969091C100E5
:1004400095FDFCCF9091C00095FFF8CF8093C6003A
:1004500081919191009791F7A0960FB6F894DEBF25
:100460000FBECDBFDF91CF91089582E490E0D1CF50
:100470008E309105B1F078F08F30910549F686E421
:1004800090E0C7CF329522952F7023273F70232706
:100490004F5F5F4F9CCF84E490E0BBCF83E490E05C
:1004A000B8CF85E490E0B5CF81E490E0B2CF0F9370
:1004B0001F93CF93DF93CDB7DEB7C054D1090FB6EA
:1004C000F894DEBF0FBECDBFDB01AB01BC0100E085
:1004D00010E0411551056105710509F04BC001158A
:1004E000110509F447C0000F111F000F111F9E01D5
:1004F0002F5F3F4FF901E00FF11FAD01BC011EC09E
:100500008A309105A105B10509F452C08B309105DF
:10051000A105B10509F447C0C096A11DB11DB29354
:10052000A29392938293A4E0769567955795479509
:10053000AA95D1F7E217F30709F43FC0DB01CA011E
:100540008F709927AA27BB278C309105A105B1058B
:1005500001F1B0F28E309105A105B105A9F0F0F0DE
:100560008F309105A105B105B9F686E490E0A0E0D1
:10057000B0E0D5CF34E076956795579547953A9595
:10058000D1F70F5F1F4FA5CF85E490E0A0E0B0E06A
:10059000C6CF83E490E0A0E0B0E0C1CF84E490E077
:1005A000A0E0B0E0BCCF82E490E0A0E0B0E0B7CF44
:1005B00081E490E0A0E0B0E0B2CFE00FF11F108244
:1005C00011821282138289819A81AB81BC8100974A
:1005D000A105B105A1F0FE0135969091C10095FDF0
:1005E000FCCF9091C00095FFF8CF8093C600819119
:1005F0009191A191B1910097A105B10571F7C05CEE
:10060000DF4F0FB6F894DEBF0FBECDBFDF91CF91A5
:100610001F910F910895CF93DF9300D000D000D0A9
:10062000CDB7DEB7982F20E030E04DEC9111A4C09B
:100630002115310509F4A0C0AE014C5F5F4FFA01EE
:10064000E20FF31F982F7DEC979F812D1124869543
:1006500086958695AAE08A9F90191124905D9293C1
:10066000982FE417F50781F7E20FF31F1082262F6A
:1006700080E090E03DEC211177C0009709F474C050
:100680009E012F5F3F4FF901E80FF91F562F6DECC8
:10069000569F412D11244695469546957AE0479FF1
:1006A00050191124505D5293542FE217F30781F72C
:1006B000E80FF91F10828091C10085FDFCCF809169
:1006C000C00085FFF8CF8BE18093C6008091C10008
:1006D00085FDFCCF8091C00085FFF8CF8BE580932E
:1006E000C6009C81992379F0FE0135968091C10066
:1006F00085FDFCCF8091C00085FFF8CF9093C600A8
:1007000091919111F3CF8091C10085FDFCCF809133
:10071000C00085FFF8CF8BE38093C60099819923B1
:1007200079F0FE0132968091C10085FDFCCF809169
:10073000C00085FFF8CF9093C60091919111F3CF3F
:100740008091C10085FDFCCF8091C00085FFF8CF6E
:1007500088E48093C60026960FB6F894DEBF0FBEDD
:10076000CDBFDF91CF910895239F212D1124269590
:100770002695269501967FCF949F912D11249695CD
:10078000969596952F5F3F4F51CFCF93DF9300D033
:100790001F92CDB7DEB7982F20E030E04DEC9111DD
:1007A00058C02115310509F454C0AE014F5F5F4FA9
:1007B000FA01E20FF31F982F6DEC969F812D112403
:1007C0008695869586957AE0879F90191124905D8D
:1007D0009293982FE417F50781F7E20FF31F108229
:1007E0008091C10085FDFCCF8091C00085FFF8CFCE
:1007F0008BE18093C6008091C10085FDFCCF809184
:10080000C00085FFF8CF8BE58093C60099819923BE
:1008100079F0FE0132968091C10085FDFCCF809178
:10082000C00085FFF8CF9093C60091919111F3CF4E
:100830008091C10085FDFCCF8091C00085FFF8CF7D
:100840008DE68093C6000F900F900F90DF91CF91AF
:100850000895949F912D11249695969596952F5FC6
:100860003F4F9DCF8091C10085FDFCCF8091C0009E
:1008700085FFF8CF8BE18093C6008091C10085FD94
:10088000FCCF8091C00085FFF8CF8BE58093C60038
:100890008091C10085FDFCCF8091C00085FFF8CF1D
:1008A00082E38093C6008091C10085FDFCCF8091DA
:1008B000C00085FFF8CF8AE48093C600089578943D
:1008C0000994EEE6F0E080818260808384B58260E6
:1008D00084BD85B5856085BD8CE987BD08957EBFE3
:1008E0006DBF2F923F924F925F926F927F928F9245
:1008F0009F92AF92BF92CF92DF92EF92FF920F93AF
:100900001F93CF93DF939EBF8DBFDF91CF911F9138
:100910000F91FF90EF90DF90CF90BF90AF909F909E
:100920008F907F906F905F904F903F902F900895A1
:100930008FEF8093E1011092760110927501109271
:1009400085011092840110929401109293011092EB
:10095000A3011092A2011092B2011092B101109263
:10096000C1011092C0011092D0011092CF011092DB
:10097000DF011092DE011092E0011092E20110926C
:10098000E3011092E4011092E501F8940895EF92CA
:10099000FF920F931F93CF93DF93CDB7DEB72897C6
:1009A0000FB6F894DEBF0FBECDBF9C838B832FE5BF
:1009B00034E03A83298320E030E08FE0829F800199
:1009C000839F100D112408591E4FD8011D96ED91DB
:1009D000FC911E97EF2BB1F02F5F3F4F2830310570
:1009E00069F780E191E00E94A90028960FB6F8947B
:1009F000DEBF0FBECDBFDF91CF911F910F91FF9052
:100A0000EF900895D8012C938B819C8112969C9332
:100A10008E93119784E190E014969C938E93139794
:100A200016965C934E931597CA014F8358876D8332
:100A30007E830E94A406F801948783874F8158859E
:100A400041505109480F591F5287418750874783AA
:100A500081E090E0968785878091E0018F5F8093A9
:100A6000E001278130858981D9018C93F901319783
:100A70008A818083F90132978B818083F9013397D2
:100A80008C818083F9013497D8011896FC93EE93FA
:100A900017976D817E817B01CB010F96D7014D9118
:100AA0007D0140833197D8011896FC93EE931797F8
:100AB000E816F90699F7FB018785F901739780839A
:100AC00094CF7091E1018091E101883018F087E0C6
:100AD0008093E1012091E10130E02F5F3F4F2770CB
:100AE0003327822F9091E101291711F19FE0929F06
:100AF000F001939FF00D1124E859FE4F458556856E
:100B0000452BB1F46FE00BC0629FF001639FF00DC5
:100B10001124E859FE4F45855685452B49F42F5F32
:100B20003F4F27703327822F9091E1019213ECCF32
:100B30009091E101981308959FE0899FF00111249D
:100B4000E859FE4F25853685232BA9F77093E101DF
:100B50008FEF08950E9461058093E1018091E1018A
:100B60008F3F91F1E091E1018FE0E89FF0011124C6
:100B7000E859FE4F878190850E96908787838781FD
:100B8000908501979EBF8DBF818592850196908744
:100B90008783148213829F918F91FF91EF918091AF
:100BA0006E00826080936E0084B5826084BD85B5DE
:100BB000856085BD8CE987BD6DB77EB78DB79EB763
:100BC00042970E946F04089582E491E00C94A9007A
:100BD0001F920F920FB60F9211242F933F934F93B2
:100BE0005F936F937F938F939F93AF93BF93EF9395
:100BF000FF93CF93DF9300D0CDB7DEB78091E101B3
:100C00008A830E9461058093E1018983EA814FE034
:100C10004E9FF0011124E859FE4F89818DB79EB790
:100C20004397908787838185928527813085821BB2
:100C3000930B0196948383839A8189816DB77EB7E4
:100C4000981711F1E9814E9FF0011124E859FE4FE8
:100C5000878190856250710901970E946F040F90FF
:100C60000F90DF91CF91FF91EF91BF91AF919F9145
:100C70008F917F916F915F914F913F912F910F9045
:100C80000FBE0F901F9018958DB79EB762507109D7
:100C900044970E946F04E3CF88E691E00895CF93D4
:100CA000DF9300D0CDB7DEB784EF91E09A838983DC
:100CB0000E9480000E94980449E250E0BE016F5FEC
:100CC0007F4F83E590E00E94C70447E250E060E078
:100CD00070E080E790E00E94C7040E94AA0580E0CF
:100CE00090E00F900F90DF91CF910895A29FB001F7
:100CF000B39FC001A39F01D0B29F700D811D11242D
:100D0000911D0895A1E21A2EAA1BBB1BFD010DC067
:100D1000AA1FBB1FEE1FFF1FA217B307E407F507AB
:100D200020F0A21BB30BE40BF50B661F771F881F87
:100D3000991F1A9469F760957095809590959B011D
:100D4000AC01BD01CF0108950F931F93CF93DF93A3
:100D50008230910510F482E090E0E091E801F0919A
:100D6000E90120E030E0C0E0D0E023C040815181C3
:100D700048175907A8F04817590761F482819381F1
:100D8000209719F09B838A832EC09093E90180936A
:100D9000E80129C02115310529F04217530710F049
:100DA000A90102C0BE01DF0102811381EF019A0196
:100DB000F8013097D9F62115310509F1281B390BB7
:100DC0002430310590F412968D919C911397611502
:100DD000710521F0FB019383828304C09093E901A4
:100DE0008093E801FD01329644C0FD01E20FF31F3C
:100DF00081939193225031092D933C933AC02091D5
:100E0000E6013091E701232B41F420910401309158
:100E100005013093E7012093E60120910201309112
:100E200003012115310541F42DB73EB7409106016C
:100E300050910701241B350BE091E601F091E70189
:100E4000E217F307A0F42E1B3F0B2817390778F0A1
:100E5000AC014E5F5F4F2417350748F04E0F5F1F00
:100E60005093E7014093E6018193919302C0E0E043
:100E7000F0E0CF01DF91CF911F910F910895EF9294
:100E8000FF920F931F93CF93DF93009709F48EC0C7
:100E9000DC01129713961C921E921297E090E801C3
:100EA000F090E901E114F10489F42D913C9111973E
:100EB000280F391F8091E6019091E701821793076F
:100EC00089F5B093E701A093E60170C0E70120E047
:100ED00030E001C0EA01CA17DB0738F44A815B81C0
:100EE0009E0141155105B1F722C0AC014250510994
:100EF000FA01D383C28300811181BC01600F711F8D
:100F00006C177D0761F468817981600F711F6E5FD6
:100F10007F4F718360836A817B8173836283211534
:100F2000310529F4B093E901A093E8013FC0F9012C
:100F3000B383A283E90149915991C40FD51FAC171E
:100F4000BD0771F4DC019E918E91840F951F02966E
:100F50009183808312968D919C91139793838283C2
:100F6000A0E0B0E002C0D7017C01F701828193814B
:100F70000097C9F7C701029620813181820F931F24
:100F80002091E6013091E7012817390779F410978D
:100F900029F41092E9011092E80104C013961C9202
:100FA0001E921297F092E701E092E601CDB7DEB70C
:100FB000E6E00C94E7072A88398848885F846E84C5
:100FC0007D848C849B84AA84B984C884DF80EE806D
:100FD000FD800C811B81AA81B981CE0FD11D0FB676
:100FE000F894DEBF0FBECDBFED010895F894FFCF9A
:100FF00001000000EA012000666F6F666F6F20003D
:101000004572726F723A204D6178696D756D20611D
:101010006D6F756E74206F6620746872656164739D
:1010200020686173206265656E2072656163686522
:1010300064004572726F723A204E6F20616374696A
:101040007665207468726561642063616E206265F4
:0810500020666F756E6400005C
:00000001FF
