:100000000C9434000C9451000C9451000C94510049
:100010000C9451000C9451000C9451000C9451001C
:100020000C9451000C9451000C9451000C945D06FA
:100030000C9451000C9451000C94E1080C94510064
:100040000C9451000C9451000C9451000C945100EC
:100050000C9451000C9451000C9451000C945100DC
:100060000C9451000C94510011241FBECFEFD8E026
:10007000DEBFCDBF11E0A0E0B1E0E8E6FAE102C0EA
:1000800005900D92A43FB107D9F712E0A4EFB1E0BB
:1000900001C01D92A73FB107E1F70E94CD0A0C9461
:1000A000320D0C940000FFCF259A87E092E00E9469
:1000B0007C092D9A87E092E00E94B9098FE092E0D6
:1000C0000E947C092D988FE092E00E94B909EDCF43
:1000D0000E945F084C010E942806C4018A529F4F6B
:1000E0005C01F401E652FF4F6F01C40185529F4F3E
:1000F0007C0187E0482E512C0E946E028F3F79F0E0
:100100008B3609F4E3C008F4CFC08D3609F4D8C0AB
:100110008A3729F480910101865F809301018BE089
:1001200092E00E947C0985E20E94B50561E081E0D1
:100130000E94EF048CE091E00E948302F50160814F
:100140007181828193810E94120361E082E00E94AA
:10015000EF0485E191E00E948302F601808190E046
:100160000E94960261E083E00E94EF048BE191E03F
:100170000E948302F701808190E00E949602E401D0
:1001800011E0612C712C08C0FFEF6F1A7F0A6A968C
:10019000145F113609F47FC08E859F85892BA1F3EA
:1001A000C301B2010E94310B815E0E94B505612F2F
:1001B00085E00E94EF0485E291E00E94830288813D
:1001C00090E00E949602612F86E00E94EF048AE28E
:1001D00091E00E94830289819A810E94AD03612F80
:1001E00087E00E94EF0482E391E00E9483028B810A
:1001F0009C810E94AD03612F88E00E94EF048AE396
:1002000091E00E9483028D8190E00E949602612F0E
:1002100089E00E94EF0480E491E00E9483028E81D5
:100220009F810E949602612F8AE00E94EF0487E47A
:1002300091E00E948302888599850E94AD03612F19
:100240008BE00E94EF048FE491E00E9483028A8594
:100250009B850E94AD03612F8CE00E94EF0486E530
:1002600091E00E9483028C859D850E94AD03612FE1
:100270008DE00E94EF048EE591E00E948302888D5C
:10028000998D0E949602FFEF6F1A7F0A6A96145F9B
:10029000113609F081CF8BE092E00E94B90989E123
:1002A00090E00E94480928CF813609F038CF80912C
:1002B0000101882309F433CF8A50809301012FCFA5
:1002C00080910001865F8093000129CF8091000119
:1002D000882309F424CF8A508093000120CF8BE03B
:1002E00092E00E947C0985E20E94B50561E08FE002
:1002F0000E94EF0484E691E00E948302C5EFD1E002
:10030000899190E00E94960287E891E00E94830222
:1003100021E0CF3FD207A1F761E080E10E94EF0426
:100320008DE691E00E9483028091F40190E00E94AA
:10033000960261E081E10E94EF0484E791E00E946F
:10034000830281E891E00E9483026DE081E10E94D6
:10035000EF04809101012AE0829FC00111240E94D4
:10036000960289E891E00E94830261E082E10E94A6
:10037000EF048DE891E00E94830281E891E00E9401
:1003800083026DE082E10E94EF04809100012AE087
:10039000829FC00111240E94960289E891E00E9488
:1003A000830261E083E10E94EF0486E891E00E940D
:1003B000830261E083E10E94EF048091FF0190914C
:1003C000000297FD0BC00E9496028BE092E00E9413
:1003D000B90989E190E00E94480981CF8AE991E05A
:1003E0000E948302F2CF84E090E00E94F50CC0E00E
:1003F000D0E09AE5E92EF12C0AE010E083E192E0EA
:100400000E94E10983E092E00E947C098FE092E083
:100410000E947C098091010190E00E9448090E949D
:10042000F00CFE01EB50FE4FB7010E94310B865FCE
:100430008083CE010196B8010E94310BEC018FE060
:1004400092E00E94B90983E092E00E94B9098FEF1F
:1004500091E00E94030AD2CFC0E0D0E00AE010E0B1
:100460008FEF91E00E94E10983E092E00E947C0915
:1004700087E092E00E947C098091000190E00E9458
:100480004809FE01EB50FE4F80818093F401CE01BC
:100490000196B8010E94310BEC0187E092E00E94C6
:1004A000B90983E092E00E94B90983E192E00E94D9
:1004B000030AD6CF82E08093C0001092C50080E18D
:1004C0008093C400E1ECF0E080818861808308952E
:1004D0008091C000881F8827881F08958091C000E0
:1004E00087FD02C08FEF08958091C6000895909116
:1004F000C10095FDFCCF9091C00095FFF8CF80938F
:10050000C60081E00895FC012081222371F031961C
:100510008091C10085FDFCCF8091C00085FFF8CFA0
:100520002093C60021912111F3CF0895CF92DF923D
:10053000EF92FF920F931F93CF93DF93CDB7DEB768
:10054000A0970FB6F894DEBF0FBECDBF8C019C0103
:10055000C12CD12C2115310509F055C0C114D1048D
:1005600009F451C0CC0CDD1CCE0101967C01FC01CC
:10057000EC0DFD1D9801ADECBCEC0E94220BAC0112
:10058000569547955695479556954795BA01660FE6
:10059000771FCA01880F991F880F991F880F991F0D
:1005A000680F791F261B370B205D3F4F3293229334
:1005B0008A01EE15FF05F1F6EC0DFD1D118210828A
:1005C00089819A81009781F0FE0133969091C10054
:1005D00095FDFCCF9091C00095FFF8CF8093C600A9
:1005E00081919191009791F7A0960FB6F894DEBF94
:1005F0000FBECDBFDF91CF911F910F91FF90EF9074
:10060000DF90CF900895ADECBCEC0E94220B9C01D2
:100610003695279536952795369527958FEFC81AE5
:10062000D80A98CF4F925F926F927F928F929F924B
:10063000AF92BF92CF92DF92EF92FF920F931F93F0
:10064000CF93DF93CDB7DEB7C054D1090FB6F8947E
:10065000DEBF0FBECDBF762E672E582E492EC12C81
:10066000D12C3AE0832E912CA12CB12C611571056F
:100670008105910509F067C0C114D10409F463C074
:10068000CC0CDD1CCC0CDD1CCE0101967C018C0158
:100690000C0D1D1D2AE0822E912CA12CB12C672D52
:1006A000762D852D942DA50194010E94450BDC012A
:1006B000CB01C096A11DB11DF801B293A2939293F4
:1006C00082938F01722E632E542E452EEE15FF0558
:1006D00031F7EC0DFD1D1082118212821382898187
:1006E0009A81AB81BC810097A105B105A1F0FE0103
:1006F00035969091C10095FDFCCF9091C00095FF7B
:10070000F8CF8093C60081919191A191B19100970A
:10071000A105B10571F7C05CDF4F0FB6F894DEBFDD
:100720000FBECDBFDF91CF911F910F91FF90EF9042
:10073000DF90CF90BF90AF909F908F907F906F9001
:100740005F904F900895A50194010E94450BCA0146
:10075000B9012FEFC21AD20A89CFCF93DF93CDB759
:10076000DEB7A0970FB6F894DEBF0FBECDBF9C01D9
:1007700040E050E02115310589F54115510571F131
:10078000BA01660F771FAE014F5F5F4FFA01E60FA8
:10079000F71F14C02E303105B1F190F12F30310523
:1007A00061F526E430E032932293929582958F7022
:1007B00089279F708927E417F50741F19C012F7065
:1007C00033272C30310599F028F72A30310591F084
:1007D0002B30310591F422E430E0E5CF32952295BB
:1007E0002F7023273F7023274F5F5F4FC3CF23E432
:1007F00030E0D9CF21E430E0D6CF205D3F4FD3CFDA
:1008000024E430E0D0CF25E430E0CDCFE60FF71F71
:100810001182108289819A81009781F0FE013396BE
:100820009091C10095FDFCCF9091C00095FFF8CF4D
:100830008093C60081919191009791F7A0960FB691
:10084000F894DEBF0FBECDBFDF91CF910895CF9258
:10085000DF92EF92FF920F931F93CF93DF93CDB769
:10086000DEB7C054D1090FB6F894DEBF0FBECDBFBE
:100870009B01AC0100E010E0211531054105510557
:1008800009F053C00115110509F44FC0000F111FE5
:10089000000F111F9E012F5F3F4FF901E00FF11F65
:1008A00024C04EE0C416D104E104F10409F45FC091
:1008B00008F457C04FE0C416D104E104F10409F074
:1008C0004AC046E4C42ED12CE12CF12CF292E292E3
:1008D000D292C292A4E09695879577956795AA954E
:1008E000D1F7E217F30709F448C06B017C014FE030
:1008F000C422DD24EE24FF244CE0C416D104E1041C
:10090000F104E9F070F64AE0C416D104E104F10400
:10091000E1F04BE0C416D104E104F104E1F4B2E4E7
:10092000CB2ED12CE12CF12CD1CFE4E0569547957C
:1009300037952795EA95D1F70F5F1F4F9DCFB3E409
:10094000CB2ED12CE12CF12CC1CF41E4C42ED12CE3
:10095000E12CF12CBBCF40E3C40ED11CE11CF11CF7
:10096000B5CFA4E4CA2ED12CE12CF12CAFCF55E4A5
:10097000C52ED12CE12CF12CA9CFE00FF11F108254
:1009800011821282138289819A81AB81BC81009786
:10099000A105B105A1F0FE0135969091C10095FD2C
:1009A000FCCF9091C00095FFF8CF8093C600819155
:1009B0009191A191B1910097A105B10571F7C05C2A
:1009C000DF4F0FB6F894DEBF0FBECDBFDF91CF91E2
:1009D0001F910F91FF90EF90DF90CF900895CF93EC
:1009E000DF9300D000D000D0CDB7DEB7982F40E025
:1009F00050E02DEC9111B0C04115510509F4ACC087
:100A00009A01215031097DECE4E0F0E0EC0FFD1F8C
:100A1000E20FF31F879F912D112496959695969539
:100A2000AAE09A9F80191124805D8083892F21502C
:100A3000310950F7E4E0F0E0EC0FFD1FE40FF51F83
:100A40001082862F20E030E09DEC81117CC02115C2
:100A5000310509F478C0C90101975DECE1E0F0E0EF
:100A6000EC0FFD1FE80FF91F659F412D11244695DE
:100A700046954695AAE04A9F60191124605D6083FF
:100A8000642F019758F7E1E0F0E0EC0FFD1FE20F53
:100A9000F31F10828091C10085FDFCCF8091C000C2
:100AA00085FFF8CF8BE18093C6008091C10085FD62
:100AB000FCCF8091C00085FFF8CF8BE58093C60006
:100AC0009C81992379F0FE0135968091C10085FDC6
:100AD000FCCF8091C00085FFF8CF9093C600919124
:100AE0009111F3CF8091C10085FDFCCF8091C000B2
:100AF00085FFF8CF8BE38093C6009981992379F025
:100B0000FE0132968091C10085FDFCCF8091C0002E
:100B100085FFF8CF9093C60091919111F3CF80910A
:100B2000C10085FDFCCF8091C00085FFF8CF88E42F
:100B30008093C60026960FB6F894DEBF0FBECDBFD9
:100B4000DF91CF910895899F812D112486958695F7
:100B500086952F5F3F4F79CF929F912D11249695C7
:100B6000969596954F5F5F4F45CFCF93DF9300D01B
:100B70001F92CDB7DEB7982F40E050E02DEC9111D9
:100B80005EC04115510509F45AC09A01215031093E
:100B90006DECE1E0F0E0EC0FFD1FE20FF31F869F2C
:100BA000912D11249695969596957AE0979F8019A8
:100BB0001124805D8083892F2150310950F7E1E0B5
:100BC000F0E0EC0FFD1FE40FF51F10828091C100D3
:100BD00085FDFCCF8091C00085FFF8CF8BE180932D
:100BE000C6008091C10085FDFCCF8091C00085FFCB
:100BF000F8CF8BE58093C6009981992379F0FE01A7
:100C000032968091C10085FDFCCF8091C00085FFA8
:100C1000F8CF9093C60091919111F3CF8091C100CC
:100C200085FDFCCF8091C00085FFF8CF8DE68093D5
:100C3000C6000F900F900F90DF91CF910895929F73
:100C4000912D11249695969596954F5F5F4F97CF6E
:100C50008091C10085FDFCCF8091C00085FFF8CF59
:100C60008BE18093C6008091C10085FDFCCF80910F
:100C7000C00085FFF8CF8BE58093C6008091C1004E
:100C800085FDFCCF8091C00085FFF8CF82E3809383
:100C9000C6008091C10085FDFCCF8091C00085FF1A
:100CA000F8CF8AE48093C60008957894E22DF32D5E
:100CB000952D842D772D662D09941F920F920FB6D6
:100CC0000F9211242F933F934F935F936F937F93D2
:100CD0008F939F93AF93BF93EF93FF936091E9023C
:100CE0007091EA028091EB029091EC022091ED026A
:100CF0003091EE024091EF025091F0022F5F3F4F92
:100D00004F4F5F4F2093ED023093EE024093EF027E
:100D10005093F0020E94450B2093F1021092F202D0
:100D200080E090E04AE1489FF001499FF00D1124D6
:100D3000E95EFD4F26853785232B29F02091F202AD
:100D40002F5F2093F20201968830910561F7FF91A1
:100D5000EF91BF91AF919F918F917F916F915F9133
:100D60004F913F912F910F900FBE0F901F901895AC
:100D7000EEE6F0E080818260808384B5826084BD8D
:100D800085B5856085BD8CE987BD89E09DE390933D
:100D9000890080938800EFE6F0E0808182608083A4
:100DA000E1E8F0E080818D6080830895FF27EDE524
:100DB000619370832F923F924F925F926F927F92D6
:100DC0008F929F92AF92BF92CF92DF92EF92FF925B
:100DD0000F931F93CF93DF93EDE581939083DF9182
:100DE000CF911F910F91FF90EF90DF90CF90BF9028
:100DF000AF909F908F907F906F905F904F903F90BB
:100E00002F900895F8948FEF8093E80280E090E0AF
:100E10002AE1289FF001299FF00D1124E95EFD4F82
:100E20001786168601968830910599F71092E70289
:100E30001092E9021092EA021092EB021092EC0278
:100E40001092ED021092EE021092EF021092F00258
:100E50001092F1021092F2020895EF92FF920F9316
:100E60001F93CF93DF93CDB7DEB728970FB6F894D3
:100E7000DEBF0FBECDBF9C838B8325E536E03A8372
:100E8000298320E030E08AE1829F8001839F100D5A
:100E90001124095E1D4FD8011E96ED91FC911F97FC
:100EA000EF2BB1F02F5F3F4F2830310569F78DE907
:100EB00091E00E94830228960FB6F894DEBF0FBE21
:100EC000CDBFDF91CF911F910F91FF90EF900895CB
:100ED000F80120838B819C81928381831482138209
:100EE00084E1858357834683EE24E394F12CF18AD1
:100EF000E08A138A128A148A158A168A178A118E32
:100F0000108ECA014F8358876D837E830E947B0BAE
:100F1000F801958784874F81588541505109480FC2
:100F2000591F5387428751874087F786E68680910D
:100F3000E7028F5F8093E7020084F185E02DCF0107
:100F40000197D80119969C938E9318978981808375
:100F50001896ED91FC911997CF01019719969C93E2
:100F60008E9318978A8180831896ED91FC9119973A
:100F7000CF01019719969C938E9318978B8180834C
:100F80001896ED91FC911997CF01019719969C93B2
:100F90008E9318978C8180836D817E81FB019B01EC
:100FA000215F3F4FD80118964D915C911997CA0166
:100FB000019719969C938E9318978191DA018C93DF
:100FC000E217F30779F7D8011896ED91FC9119977C
:100FD000DB011F968C9180836ECF7091E802809127
:100FE000E802883018F087E08093E8028091E802F8
:100FF0008F5F87706AE104C02F5F3F4F822F877039
:101000009091E802282F30E0981759F0629FF00184
:10101000639FF00D1124E95EFD4F46855785452BF2
:1010200059F3629FF001639FF00D1124E95EFD4FBB
:101030004089518943305105F9F240895189423044
:101040005105D1F29091E802891769F09AE1929FD7
:10105000F001939FF00D1124E95EFD4F41E050E057
:10106000518B408B089546855785452B79F77093B2
:10107000E8028FEF08950E94ED078093E8028091C7
:10108000E8028F3FC1F00E94B80680E290E00E9423
:101090007B0BBC01E091E8028AE1E89FF00111249A
:1010A000E95EFD4F808591857727615E7F4F0197CF
:1010B0000E94D60608958FEC91E00C94830287E19C
:1010C00092E008950F931F93CF93DF93E091E8028E
:1010D0008093E8029AE19E9FF0011124E95EFD4FA2
:1010E000082F10E0909FE001919FD00D1124C95E60
:1010F000DD4F8DB79EB743979187808722853385D3
:10110000281B390B2F5F2583808991899C012250F0
:1011100031092230310508F44CC0019709F44DC063
:101120008C91838311978C9184838A859B852885F4
:101130003985821B930B8C5E8D83198A188A809166
:10114000ED029091EE02A091EF02B091F002892B96
:101150008A2B8B2BC1F06C897D898E899F896F5F6B
:101160007F4F8F4F9F4F6C8B7D8B8E8B9F8B2091F2
:10117000ED023091EE024091EF025091F0020E9498
:10118000450B398F288F8AE1809FF001819FF00DF8
:101190001124E95EFD4F808591856DB77EB7625061
:1011A000710901970E94D606DF91CF911F910F918F
:1011B0000895ADB7BEB71296B3CFADB7BEB75496CC
:1011C000AFCF1F920F920FB60F9211242F933F9320
:1011D0004F935F936F937F938F939F93AF93BF933F
:1011E000EF93FF938091E9029091EA02A091EB02C4
:1011F000B091EC020196A11DB11D8093E90290937C
:10120000EA02A093EB02B093EC0280E090E06AE186
:1012100041E050E0689FF001699FF00D1124E95E04
:10122000FD4F26853785232B71F022893389232BA7
:1012300051F02289338921503109338B228B232BA2
:1012400011F4518B408B01968830910519F7E0918C
:10125000E8028AE1E89FF0011124E95EFD4F81E098
:1012600090E0918B808B0E94ED070E946208FF91B5
:10127000EF91BF91AF919F918F917F916F915F910E
:101280004F913F912F910F900FBE0F901F90189587
:10129000E091E8024AE14E9FF0011124E95EFD4F22
:1012A000938B828BE091E8024E9FF0011124E95E5E
:1012B000FD4F22E030E0318B208B892B59F4E091F7
:1012C000E8024E9FF0011124E95EFD4F81E090E0BD
:1012D000918B808B0E94ED070C946208CF93DF9373
:1012E000EC011982188288E090E00E942F0A9B830B
:1012F0008A83DF91CF910895DF92EF92FF920F934F
:101300001F93CF93DF93EC01F8948881998121E0BA
:1013100030E0398328837894892B19F18AE1D82E1B
:1013200093E0E92EF12C01E010E0F8946091E802DE
:10133000D69EB0011124695E7D4FFB01F18AE08ADF
:101340008A819B810E94500A78940E94ED070E9436
:101350006208F89488819981198308837894892B8D
:1013600021F7DF91CF911F910F91FF90EF90DF90C8
:101370000895CF93DF93EC01198218828A819B81B3
:101380000E94B60A892B49F48A819B810E94780ABF
:1013900021E030E0FC01318B208BDF91CF9108956B
:1013A000CF93DF93EC01772767FD7095798368838E
:1013B00088E090E00E942F0A9B838A83DF91CF917F
:1013C0000895FC012081318121503109318320832E
:1013D00037FF0895F8946091E8028AE1689FB001B0
:1013E0001124695E7D4F83E090E0DB0151969C9370
:1013F0008E935097828193810E94500A78940E9424
:10140000ED070C946208FC01208131812F5F3F4F72
:1014100031832083121613060CF408958281938180
:101420000E94780A21E030E0FC01318B208B089586
:10143000FC01208131812F5F3F4F318320831216C1
:1014400013060CF40895828193810E94780A21E0AA
:1014500030E0FC01318B208B80810C9462080F936B
:101460001F93CF93DF938C018AE090E00E947B0B67
:10147000EC01C801880F991F0E947B0B9983888318
:101480001B821A828FEF9FEF9D838C831F821E82A7
:1014900019870887CE01DF91CF911F910F91089591
:1014A000CF93DF93FC01EB01268137816085718545
:1014B00026173707C4F48481958101960E94310B69
:1014C00095838483880F991FA081B181A80FB91FCC
:1014D000CD93DC932F5F3F4F3783268381E090E0ED
:1014E000DF91CF91089580E090E0DF91CF91089552
:1014F000CF93FC012681378112161306DCF482811A
:101500009381AC01440F551FA081B181A40FB51F79
:10151000CC9111964C910196608571850E94310B9A
:101520009383828321503109378326838C2F942F14
:10153000CF91089580E090E0FBCFFC0186819781F8
:101540001816190664F482819381880F991F0190FF
:10155000F081E02DE80FF91F80819181089580E0EE
:1015600090E00895FC0186819781089521E030E0A4
:10157000FC0186819781892B11F020E030E0C901C0
:101580000895CF93DF93EC01888199810E94130C19
:10159000CE01DF91CF910C94130C0E9402070E94A0
:1015A0005A020E94280683E092E00E946E098BE0B6
:1015B00092E00E946E098FE092E00E946E0987E03F
:1015C00092E00E946E096AE083E192E00E94D009F5
:1015D00060E08FEF91E00E94D00948ED50E060E0BC
:1015E00070E084E590E00E942D0748ED50E060E057
:1015F00070E083E590E00E942D0748ED50E060E048
:1016000070E083EF91E00E942D0748ED50E060E02C
:1016100070E08CE292E00E942D0748ED50E060E01F
:1016200070E088E690E00E942D0748ED50E060E011
:1016300070E08FE691E00E942D070E943B0880E059
:1016400090E00895A29FB001B39FC001A39F700DC9
:10165000811D1124911DB29F700D811D1124911DBA
:10166000089597FB072E16F4009407D077FD09D054
:101670000E94670B07FC05D03EF4909581959F4F23
:101680000895709561957F4F0895A1E21A2EAA1BC7
:10169000BB1BFD010DC0AA1FBB1FEE1FFF1FA21722
:1016A000B307E407F50720F0A21BB30BE40BF50B1F
:1016B000661F771F881F991F1A9469F760957095A8
:1016C000809590959B01AC01BD01CF010895AA1BA7
:1016D000BB1B51E107C0AA1FBB1FA617B70710F01D
:1016E000A61BB70B881F991F5A95A9F7809590954F
:1016F000BC01CD010895CF93DF938230910510F4A2
:1017000082E090E0E091F502F091F60220E030E016
:10171000A0E0B0E0309739F1408151814817590776
:10172000B8F04817590771F482819381109729F016
:1017300013969C938E9312972CC09093F6028093ED
:10174000F50227C02115310531F04217530718F073
:10175000A901DB0101C0EF019A01BD01DF01028097
:10176000F381E02DD7CF21153105F9F0281B390B76
:101770002430310580F48A819B816115710521F047
:10178000FB019383828304C09093F6028093F50259
:10179000FE01329644C0FE01E20FF31F8193919344
:1017A00022503109398328833AC02091F3023091C5
:1017B000F402232B41F42091040130910501309370
:1017C000F4022093F30220910201309103012115CC
:1017D000310541F42DB73EB7409106015091070104
:1017E000241B350BE091F302F091F402E217F307AA
:1017F000A0F42E1B3F0B2817390778F0AC014E5F81
:101800005F4F2417350748F04E0F5F1F5093F402C7
:101810004093F3028193919302C0E0E0F0E0CF01A6
:10182000DF91CF910895CF93DF93009709F487C09C
:10183000FC01329713821282C091F502D091F60218
:10184000209781F420813181280F391F8091F30284
:101850009091F4028217930779F5F093F402E093E4
:10186000F3026DC0DE0120E030E0AE17BF0750F498
:1018700012964D915C9113979D014115510509F107
:10188000DA01F3CFB383A28340815181840F951F86
:101890008A179B0771F48D919C911197840F951F66
:1018A00002969183808312968D919C9113979383D6
:1018B00082832115310529F4F093F602E093F502B5
:1018C0003EC0D9011396FC93EE9312974D915D9112
:1018D000A40FB51FEA17FB0779F480819181840F6B
:1018E000951F0296D90111969C938E9382819381C4
:1018F00013969C938E931297E0E0F0E08A819B818F
:10190000009719F0FE01EC01F9CFCE010296288173
:101910003981820F931F2091F3023091F40228172E
:10192000390769F4309729F41092F6021092F50203
:1019300002C013821282D093F402C093F302DF91AB
:10194000CF9108958F929F92AF92BF92CF92DF92E4
:10195000EF92FF92CF93DF93EC01688179818A81C6
:101960009B81611571058105910521F464E279ED92
:101970008BE597E02DE133EF41E050E00E94130D3D
:1019800049015A019B01AC01A7EAB1E40E94000D94
:101990006B017C01ACEEB4EFA50194010E940E0D29
:1019A000C60ED71EE81EF91EF7FE06C081E0C81A53
:1019B000D108E10880E8F80AC882D982EA82FB826D
:1019C000C6019F77DF91CF91FF90EF90DF90CF908E
:1019D000BF90AF909F908F9008950E94A20C0895A1
:1019E00088E091E00E94A20C0895A0E0B0E080930E
:1019F000080190930901A0930A01B0930B01089587
:101A00000E94220BA59F900DB49F900DA49F800D66
:101A1000911D11240895B7FF0C94000D0E94000D34
:101A2000821B930B0895052E97FB1EF400940E94D1
:101A30002A0D57FD07D00E94450B07FC03D04EF43A
:101A40000C942A0D50954095309521953F4F4F4F5E
:101A50005F4F089590958095709561957F4F8F4F5A
:081A60009F4F0895F894FFCF99
:101A680064640000F70220000100000075707469CA
:101A78006D653A20006970733A2000746872656178
:101A880064733A200069643A20006670633A203033
:101A980078006970633A203078007573673A2000DF
:101AA80073697A653A2000746F733A20307800625F
:101AB800733A20307800656E643A2030780072708E
:101AC800733A20006275666665723A2000636F6E2D
:101AD800733A20007020726174653A2031202F20FB
:101AE800002020202020202000206D730063207219
:101AF8006174653A2031202F20002D310045727223
:101B08006F723A204D6178696D756D20616D6F75E2
:101B18006E74206F662074687265616473206861F2
:101B280073206265656E207265616368656400454F
:101B380072726F723A204E6F206163746976652005
:101B48007468726561642063616E20626520666FE7
:041B5800756E640042
:00000001FF
