:100000000C9434000C9451000C9451000C94510049
:100010000C9451000C9451000C9451000C9451001C
:100020000C9451000C9451000C9451000C9451000C
:100030000C9451000C9451000C94D4050C94510074
:100040000C9451000C9451000C9451000C945100EC
:100050000C9451000C9451000C9451000C945100DC
:100060000C9451000C94510011241FBECFEFD8E026
:10007000DEBFCDBF11E0A0E0B1E0E6E9FFE002C0E5
:1000800005900D92A436B107D9F711E0A4E6B1E0CE
:1000900001C01D92AE3EB107E1F70E942A060C9402
:1000A000C9070C940000259A2D98181619066CF4AF
:1000B00020E030E0EFE9FFE03197F1F700C0000009
:1000C0002F5F3F4F28173907A9F7259A2D9A2FEF51
:1000D00033ED40E3215030404040E1F700C00000E4
:1000E000E2CF0E9481002FEF83ED90E3215080400A
:1000F0009040E1F700C0000086E091E00E94AA0075
:10010000F2CF82E08093C0001092C50080E180931E
:10011000C400E1ECF0E080818861808308958091E3
:10012000C000881F8827881F08958091C00087FD20
:1001300002C08FEF08958091C60008959091C1008C
:1001400095FDFCCF9091C00095FFF8CF8093C6003D
:1001500081E00895FC012081222371F03196809185
:10016000C10085FDFCCF8091C00085FFF8CF2093B2
:10017000C60021912111F3CF0895CF92DF92EF9223
:10018000FF920F931F93CF93DF93CDB7DEB7A09766
:100190000FB6F894DEBF0FBECDBF582F492F282FC2
:1001A000392FC12CD12C2115310509F05CC0C114A7
:1001B000D10409F458C0CC0CDD1CEE24E394F12CDE
:1001C000EC0EFD1E87010C0D1D1DE52FF42F9F0168
:1001D000ADECBCEC0E94490696958795969587955F
:1001E00096958795AC01440F551F9C01220F331F34
:1001F000220F331F220F331F420F531F9F01241B57
:10020000350B205D3F4FF801329322938F01FC01A3
:100210000E151F05E1F6F801EC0DFD1D118210828F
:1002200089819A81009781F0FE0133969091C100F7
:1002300095FDFCCF9091C00095FFF8CF8093C6004C
:1002400081919191009791F7A0960FB6F894DEBF37
:100250000FBECDBFDF91CF911F910F91FF90EF9017
:10026000DF90CF900895ADECBCEC0E9449069C0154
:100270003695279536952795369527958FEFC81A89
:10028000D80A91CF4F925F926F927F928F929F92F6
:10029000AF92BF92CF92DF92EF92FF920F931F9394
:1002A000CF93DF93CDB7DEB7C054D1090FB6F89422
:1002B000DEBF0FBECDBF4B015C019B01AC01C12C69
:1002C000D12C6AE0462E512C612C712C2115310560
:1002D0004105510509F065C0C114D10409F461C09C
:1002E000CC0CDD1CCC0CDD1CEE24E394F12CEC0ECC
:1002F000FD1E87010C0D1D1DB401C5012AE0822ED3
:10030000912CA12CB12CA50194010E945506DC0171
:10031000CB01C096A11DB11DF801B293A293929397
:1003200082938F01B901CA01EE15FF0561F7EC0D4B
:10033000FD1D108211821282138289819A81AB8104
:10034000BC810097A105B105A1F0FE013596909101
:10035000C10095FDFCCF9091C00095FFF8CF809330
:10036000C60081919191A191B1910097A105B1052C
:1003700071F7C05CDF4F0FB6F894DEBF0FBECDBF84
:10038000DF91CF911F910F91FF90EF90DF90CF9071
:10039000BF90AF909F908F907F906F905F904F90A5
:1003A0000895CA01B901A30192010E9455068FEF79
:1003B000C81AD80A8BCFCF93DF93CDB7DEB7A097FB
:1003C0000FB6F894DEBF0FBECDBF9C0140E050E0F9
:1003D0002115310509F057C04115510509F453C0E5
:1003E000BA01660F771FAE014F5F5F4FFA01E60F4C
:1003F000F71F9C01C9018F7099278C30910509F472
:100400004EC0B8F58A30910509F44FC08B30910584
:1004100069F1C09692938293329522952F7023278B
:100420003F702327E417F50729F7E60FF71F11821E
:10043000108289819A81009781F0FE013396909114
:10044000C10095FDFCCF9091C00095FFF8CF80933F
:10045000C60081919191009791F7A0960FB6F894FC
:10046000DEBF0FBECDBFDF91CF91089582E490E053
:10047000D1CF8E309105B1F078F08F30910549F6EB
:1004800086E490E0C7CF329522952F7023273F70E6
:1004900023274F5F5F4F9CCF84E490E0BBCF83E482
:1004A00090E0B8CF85E490E0B5CF81E490E0B2CFA2
:1004B0000F931F93CF93DF93CDB7DEB7C054D1090D
:1004C0000FB6F894DEBF0FBECDBFDB01AB01BC01A0
:1004D00000E010E0411551056105710509F04BC0C0
:1004E0000115110509F447C0000F111F000F111F5E
:1004F0009E012F5F3F4FF901E00FF11FAD01BC01DD
:100500001EC08A309105A105B10509F452C08B3097
:100510009105A105B10509F447C0C096A11DB11D03
:10052000B293A29392938293A4E0769567955795A0
:100530004795AA95D1F7E217F30709F43FC0DB010D
:10054000CA018F709927AA27BB278C309105A10576
:10055000B10501F1B0F28E309105A105B105A9F008
:10056000F0F08F309105A105B105B9F686E490E071
:10057000A0E0B0E0D5CF34E07695679557954795E4
:100580003A95D1F70F5F1F4FA5CF85E490E0A0E02B
:10059000B0E0C6CF83E490E0A0E0B0E0C1CF84E457
:1005A00090E0A0E0B0E0BCCF82E490E0A0E0B0E05A
:1005B000B7CF81E490E0A0E0B0E0B2CFE00FF11F50
:1005C000108211821282138289819A81AB81BC814F
:1005D0000097A105B105A1F0FE0135969091C100EB
:1005E00095FDFCCF9091C00095FFF8CF8093C60099
:1005F00081919191A191B1910097A105B10571F7F8
:10060000C05CDF4F0FB6F894DEBF0FBECDBFDF91E9
:10061000CF911F910F910895CF93DF9300D000D019
:1006200000D0CDB7DEB7982F20E030E04DEC91112F
:10063000A4C02115310509F4A0C0AE014C5F5F4F85
:10064000FA01E20FF31F982F7DEC979F812D112463
:10065000869586958695AAE08A9F90191124905DCB
:100660009293982FE417F50781F7E20FF31F10829A
:10067000262F80E090E03DEC211177C0009709F42F
:1006800074C09E012F5F3F4FF901E80FF91F562FED
:100690006DEC569F412D11244695469546957AE07E
:1006A000479F50191124505D5293542FE217F307BE
:1006B00081F7E80FF91F10828091C10085FDFCCF02
:1006C0008091C00085FFF8CF8BE18093C6008091B8
:1006D000C10085FDFCCF8091C00085FFF8CF8BE580
:1006E0008093C6009C81992379F0FE013596809114
:1006F000C10085FDFCCF8091C00085FFF8CF9093AD
:10070000C60091919111F3CF8091C10085FDFCCF7E
:100710008091C00085FFF8CF8BE38093C60099815C
:10072000992379F0FE0132968091C10085FDFCCFBE
:100730008091C00085FFF8CF9093C60091919111F0
:10074000F3CF8091C10085FDFCCF8091C00085FF73
:10075000F8CF88E48093C60026960FB6F894DEBFE3
:100760000FBECDBFDF91CF910895239F212D11247E
:1007700026952695269501967FCF949F912D11243D
:100780009695969596952F5F3F4F51CFCF93DF93D8
:1007900000D01F92CDB7DEB7982F20E030E04DECAF
:1007A000911158C02115310509F454C0AE014F5FB5
:1007B0005F4FFA01E20FF31F982F6DEC969F812D8A
:1007C00011248695869586957AE0879F9019112445
:1007D000905D9293982FE417F50781F7E20FF31FCE
:1007E00010828091C10085FDFCCF8091C00085FF03
:1007F000F8CF8BE18093C6008091C10085FDFCCFCE
:100800008091C00085FFF8CF8BE58093C600998169
:10081000992379F0FE0132968091C10085FDFCCFCD
:100820008091C00085FFF8CF9093C60091919111FF
:10083000F3CF8091C10085FDFCCF8091C00085FF82
:10084000F8CF8DE68093C6000F900F900F90DF9148
:10085000CF910895949F912D1124969596959695F4
:100860002F5F3F4F9DCF8091C10085FDFCCF8091D0
:10087000C00085FFF8CF8BE18093C6008091C10056
:1008800085FDFCCF8091C00085FFF8CF8BE580937C
:10089000C6008091C10085FDFCCF8091C00085FF1E
:1008A000F8CF82E38093C6008091C10085FDFCCF24
:1008B0008091C00085FFF8CF8AE48093C600089538
:1008C000EEE6F0E080818260808384B5826084BD42
:1008D00085B5856085BD8CE987BD08957894EEE681
:1008E000F0E080818260808384B5826084BD85B5BC
:1008F000856085BD8CE987BD8DB79EB702969EBF8A
:100900008DBF08958FEF8093E501109273011092CF
:100910008301109293011092A3011092B3011092DF
:10092000C3011092D3011092E3011092E4011092DE
:10093000E6011092E7011092E8011092E901F894A3
:1009400008950F931F93CF93DF9300D000D000D072
:10095000CDB7DEB79A83898320E030E08901029524
:100960001295107F1027007F10270C591E4FD801B9
:100970001F968C918823A1F02F5F3F4F28303105BF
:1009800069F78DE091E00E94AA0026960FB6F894D0
:10099000DEBF0FBECDBFDF91CF911F910F910895A4
:1009A000F801208389819A819283818384E190E098
:1009B0009483838356834583CA014D835E836B830F
:1009C0007C830E947706D8011C969C938E931B977C
:1009D0004D815E8141505109480F591F1A965C9311
:1009E0004E9319974150510918965C934E9317975F
:1009F0006B817C811E967C936E931D9781E01F9680
:100A00008C931F978091E4018F5F8093E401179688
:100A1000ED91FC9118978A8180831796ED91FC9156
:100A200018978981818317968D919C911897429789
:100A300018969C938E931797A8CF4091E5018091CB
:100A4000E501883018F087E08093E5012091E50109
:100A500030E02F5F3F4F27703327822F9091E501C1
:100A600029130AC015C02F5F3F4F27703327822FED
:100A70009091E501921761F0F901E295F295F07F0E
:100A8000FE27E07FFE27EC59FE4F9785992359F307
:100A90009091E5019813089590E1899FF001112448
:100AA000EC59FE4F97859111F6CF4093E5018FEFFA
:100AB0000895635071097EBF6DBF2F923F924F9290
:100AC0005F926F927F928F929F92AF92BF92CF92DE
:100AD000DF92EF92FF920F931F93CF93DF93E091FA
:100AE000E5012DB73EB72F5F3F4F40E1E49FF00196
:100AF0001124EC59FE4F3087278301979EBF8DBF8D
:100B0000DF91CF911F910F91FF90EF90DF90CF90E9
:100B1000BF90AF909F908F907F906F905F904F901D
:100B20003F902F900E941D0590E1899FF0011124B4
:100B3000EC59FE4F218532858DB79EB782179307FA
:100B400060F4238534858DB79EB72817390728F4BC
:100B50008DB79EB702969087878308950E941D05E2
:100B60008093E5018091E5018F3FD1F0E091E501AF
:100B700080E1E89FF0011124EC59FE4F87819085B8
:100B8000BC016E5E7F4F708767839C012F5E3F4F75
:100B90003EBF2DBF02970E9459050E946E04089522
:100BA0008FE391E00C94AA001F920F920FB60F9260
:100BB00011240F931F932F933F934F935F936F9342
:100BC0007F938F939F93AF93BF93CF93DF93EF93D5
:100BD000FF930091E5010E941D05182F8DB79EB768
:100BE000BC016F5F7F4F20E1029FE0011124FE01F5
:100BF000EC59FE4F70876783011741F180E1189F20
:100C0000E0011124FE01EC59FE4F878190850E947E
:100C100059051093E501CC59DE4F89859A8598874F
:100C20008F83FF91EF91DF91CF91BF91AF919F9112
:100C30008F917F916F915F914F913F912F911F9174
:100C40000F910F900FBE0F901F90189543970E9421
:100C50005905E1CFCF93DF9300D0CDB7DEB784EF56
:100C600091E09A8389830E9481000E94820449E274
:100C700050E0BE016F5F7F4F83E590E00E94A104CA
:100C80000E94AE0580E090E00F900F90DF91CF9131
:100C90000895A29FB001B39FC001A39F01D0B29F4E
:100CA000700D811D1124911D0895A1E21A2EAA1B19
:100CB000BB1BFD010DC0AA1FBB1FEE1FFF1FA2170C
:100CC000B307E407F50720F0A21BB30BE40BF50B09
:100CD000661F771F881F991F1A9469F76095709592
:100CE000809590959B01AC01BD01CF0108950F93B4
:100CF0001F93CF93DF938230910510F482E090E050
:100D0000E091EC01F091ED0120E030E0C0E0D0E0B6
:100D100023C04081518148175907A8F04817590747
:100D200061F482819381209719F09B838A832EC07E
:100D30009093ED018093EC0129C02115310529F034
:100D40004217530710F0A90102C0BE01DF01028162
:100D50001381EF019A01F8013097D9F62115310579
:100D600009F1281B390B2430310590F412968D912E
:100D70009C9113976115710521F0FB019383828388
:100D800004C09093ED018093EC01FD01329644C0C4
:100D9000FD01E20FF31F81939193225031092D93AE
:100DA0003C933AC02091EA013091EB01232B41F4AE
:100DB00020910201309103013093EB012093EA016D
:100DC00020910001309101012115310541F42DB729
:100DD0003EB74091040150910501241B350BE09171
:100DE000EA01F091EB01E217F307A0F42E1B3F0B91
:100DF0002817390778F0AC014E5F5F4F241735078D
:100E000048F04E0F5F1F5093EB014093EA0181932E
:100E1000919302C0E0E0F0E0CF01DF91CF911F910C
:100E20000F910895EF92FF920F931F93CF93DF934B
:100E3000009709F48EC0DC01129713961C921E9243
:100E40001297E090EC01F090ED01E114F10489F4C7
:100E50002D913C911197280F391F8091EA019091B3
:100E6000EB018217930789F5B093EB01A093EA0198
:100E700070C0E70120E030E001C0EA01CA17DB07DB
:100E800038F44A815B819E0141155105B1F722C0BA
:100E9000AC0142505109FA01D383C2830081118110
:100EA000BC01600F711F6C177D0761F46881798147
:100EB000600F711F6E5F7F4F718360836A817B81DA
:100EC000738362832115310529F4B093ED01A0935A
:100ED000EC013FC0F901B383A283E9014991599123
:100EE000C40FD51FAC17BD0771F4DC019E918E9124
:100EF000840F951F02969183808312968D919C9109
:100F0000139793838283A0E0B0E002C0D7017C01F5
:100F1000F701828193810097C9F7C701029620816A
:100F20003181820F931F2091EA013091EB01281744
:100F3000390779F4109729F41092ED011092EC0121
:100F400004C013961C921E921297F092EB01E0924D
:100F5000EA01CDB7DEB7E6E00C94BA072A883988F3
:100F600048885F846E847D848C849B84AA84B98441
:100F7000C884DF80EE80FD800C811B81AA81B9814D
:100F8000CE0FD11D0FB6F894DEBF0FBECDBFED0161
:060F90000895F894FFCF64
:100F96000000EE01200048656C6C6F2000457272FF
:100FA6006F723A204D6178696D756D20616D6F7550
:100FB6006E74206F66207468726561647320686160
:100FC60073206265656E20726561636865640045BD
:100FD60072726F723A204E6F206163746976652073
:100FE6007468726561642063616E20626520666F55
:040FF600756E6400B0
:00000001FF
