:100000000C9434000C9451000C9451000C94510049
:100010000C9451000C9451000C9451000C9451001C
:100020000C9451000C9451000C9451000C9451000C
:100030000C9451000C9451000C94E4050C94510064
:100040000C9451000C9451000C9451000C945100EC
:100050000C9451000C9451000C9451000C945100DC
:100060000C9451000C94510011241FBECFEFD8E026
:10007000DEBFCDBF11E0A0E0B1E0ECEEFFE002C0DA
:1000800005900D92A636B107D9F711E0A6E6B1E0CA
:1000900001C01D92AC3EB107E1F70E9463060C94CB
:1000A000F4070C9400000E9480002FEF83ED90E392
:1000B000215080409040E1F700C0000086E091E0D0
:1000C0000E94A900F2CF259A2D98009769F020E0B0
:1000D00030E0EFE9FFE03197F1F700C000002F5F5B
:1000E0003F4F28173907A9F7259A2D9A2FEF33ED9F
:1000F00040E3215030404040E1F700C00000E3CF32
:1001000082E08093C0001092C50080E18093C4001B
:10011000E1ECF0E080818861808308958091C000E7
:10012000881F8827881F08958091C00087FD02C01E
:100130008FEF08958091C60008959091C10095FDBC
:10014000FCCF9091C00095FFF8CF8093C60081E06E
:100150000895FC012081222371F031968091C10025
:1001600085FDFCCF8091C00085FFF8CF2093C600AD
:1001700021912111F3CF0895CF92DF92EF92FF9258
:100180000F931F93CF93DF93CDB7DEB7A0970FB632
:10019000F894DEBF0FBECDBF582F492F282F392F1F
:1001A000C12CD12C2115310509F05CC0C114D1043A
:1001B00009F458C0CC0CDD1CEE24E394F12CEC0EB9
:1001C000FD1E87010C0D1D1DE52FF42F9F01ADECC9
:1001D000BCEC0E94740696958795969587959695A2
:1001E0008795AC01440F551F9C01220F331F220F2E
:1001F000331F220F331F420F531F9F01241B350B48
:10020000205D3F4FF801329322938F01FC010E15C0
:100210001F05E1F6F801EC0DFD1D118210828981A8
:100220009A81009781F0FE0133969091C10095FD6F
:10023000FCCF9091C00095FFF8CF8093C6008191CC
:100240009191009791F7A0960FB6F894DEBF0FBE7C
:10025000CDBFDF91CF911F910F91FF90EF90DF9075
:10026000CF900895ADECBCEC0E9474069C013695CD
:10027000279536952795369527958FEFC81AD80A72
:1002800091CF4F925F926F927F928F929F92AF9297
:10029000BF92CF92DF92EF92FF920F931F93CF9373
:1002A000DF93CDB7DEB7C054D1090FB6F894DEBFE7
:1002B0000FBECDBF4B015C019B01AC01C12CD12C09
:1002C0006AE0462E512C612C712C21153105410517
:1002D000510509F065C0C114D10409F461C0CC0C0A
:1002E000DD1CCC0CDD1CEE24E394F12CEC0EFD1E89
:1002F00087010C0D1D1DB401C5012AE0822E912C31
:10030000A12CB12CA50194010E948006DC01CB0137
:10031000C096A11DB11DF801B293A293929382934E
:100320008F01B901CA01EE15FF0561F7EC0DFD1D46
:10033000108211821282138289819A81AB81BC81E1
:100340000097A105B105A1F0FE0135969091C1007D
:1003500095FDFCCF9091C00095FFF8CF8093C6002B
:1003600081919191A191B1910097A105B10571F78A
:10037000C05CDF4F0FB6F894DEBF0FBECDBFDF917C
:10038000CF911F910F91FF90EF90DF90CF90BF9092
:10039000AF909F908F907F906F905F904F90089557
:1003A000CA01B901A30192010E9480068FEFC81A09
:1003B000D80A8BCFCF93DF93CDB7DEB7A0970FB618
:1003C000F894DEBF0FBECDBF9C0140E050E0211588
:1003D000310509F057C04115510509F453C0BA0160
:1003E000660F771FAE014F5F5F4FFA01E60FF71FF1
:1003F0009C01C9018F7099278C30910509F44EC07A
:10040000B8F58A30910509F44FC08B30910569F138
:10041000C09692938293329522952F7023273F7036
:100420002327E417F50729F7E60FF71F118210823B
:1004300089819A81009781F0FE0133969091C100E5
:1004400095FDFCCF9091C00095FFF8CF8093C6003A
:1004500081919191009791F7A0960FB6F894DEBF25
:100460000FBECDBFDF91CF91089582E490E0D1CF50
:100470008E309105B1F078F08F30910549F686E421
:1004800090E0C7CF329522952F7023273F70232706
:100490004F5F5F4F9CCF84E490E0BBCF83E490E05C
:1004A000B8CF85E490E0B5CF81E490E0B2CF0F9370
:1004B0001F93CF93DF93CDB7DEB7C054D1090FB6EA
:1004C000F894DEBF0FBECDBFDB01AB01BC0100E085
:1004D00010E0411551056105710509F04BC001158A
:1004E000110509F447C0000F111F000F111F9E01D5
:1004F0002F5F3F4FF901E00FF11FAD01BC011EC09E
:100500008A309105A105B10509F452C08B309105DF
:10051000A105B10509F447C0C096A11DB11DB29354
:10052000A29392938293A4E0769567955795479509
:10053000AA95D1F7E217F30709F43FC0DB01CA011E
:100540008F709927AA27BB278C309105A105B1058B
:1005500001F1B0F28E309105A105B105A9F0F0F0DE
:100560008F309105A105B105B9F686E490E0A0E0D1
:10057000B0E0D5CF34E076956795579547953A9595
:10058000D1F70F5F1F4FA5CF85E490E0A0E0B0E06A
:10059000C6CF83E490E0A0E0B0E0C1CF84E490E077
:1005A000A0E0B0E0BCCF82E490E0A0E0B0E0B7CF44
:1005B00081E490E0A0E0B0E0B2CFE00FF11F108244
:1005C00011821282138289819A81AB81BC8100974A
:1005D000A105B105A1F0FE0135969091C10095FDF0
:1005E000FCCF9091C00095FFF8CF8093C600819119
:1005F0009191A191B1910097A105B10571F7C05CEE
:10060000DF4F0FB6F894DEBF0FBECDBFDF91CF91A5
:100610001F910F910895CF93DF9300D000D000D0A9
:10062000CDB7DEB7982F20E030E04DEC9111A4C09B
:100630002115310509F4A0C0AE014C5F5F4FFA01EE
:10064000E20FF31F982F7DEC979F812D1124869543
:1006500086958695AAE08A9F90191124905D9293C1
:10066000982FE417F50781F7E20FF31F1082262F6A
:1006700080E090E03DEC211177C0009709F474C050
:100680009E012F5F3F4FF901E80FF91F562F6DECC8
:10069000569F412D11244695469546957AE0479FF1
:1006A00050191124505D5293542FE217F30781F72C
:1006B000E80FF91F10828091C10085FDFCCF809169
:1006C000C00085FFF8CF8BE18093C6008091C10008
:1006D00085FDFCCF8091C00085FFF8CF8BE580932E
:1006E000C6009C81992379F0FE0135968091C10066
:1006F00085FDFCCF8091C00085FFF8CF9093C600A8
:1007000091919111F3CF8091C10085FDFCCF809133
:10071000C00085FFF8CF8BE38093C60099819923B1
:1007200079F0FE0132968091C10085FDFCCF809169
:10073000C00085FFF8CF9093C60091919111F3CF3F
:100740008091C10085FDFCCF8091C00085FFF8CF6E
:1007500088E48093C60026960FB6F894DEBF0FBEDD
:10076000CDBFDF91CF910895239F212D1124269590
:100770002695269501967FCF949F912D11249695CD
:10078000969596952F5F3F4F51CFCF93DF9300D033
:100790001F92CDB7DEB7982F20E030E04DEC9111DD
:1007A00058C02115310509F454C0AE014F5F5F4FA9
:1007B000FA01E20FF31F982F6DEC969F812D112403
:1007C0008695869586957AE0879F90191124905D8D
:1007D0009293982FE417F50781F7E20FF31F108229
:1007E0008091C10085FDFCCF8091C00085FFF8CFCE
:1007F0008BE18093C6008091C10085FDFCCF809184
:10080000C00085FFF8CF8BE58093C60099819923BE
:1008100079F0FE0132968091C10085FDFCCF809178
:10082000C00085FFF8CF9093C60091919111F3CF4E
:100830008091C10085FDFCCF8091C00085FFF8CF7D
:100840008DE68093C6000F900F900F90DF91CF91AF
:100850000895949F912D11249695969596952F5FC6
:100860003F4F9DCF8091C10085FDFCCF8091C0009E
:1008700085FFF8CF8BE18093C6008091C10085FD94
:10088000FCCF8091C00085FFF8CF8BE58093C60038
:100890008091C10085FDFCCF8091C00085FFF8CF1D
:1008A00082E38093C6008091C10085FDFCCF8091DA
:1008B000C00085FFF8CF8AE48093C600089578943D
:1008C000E22DF32D952D842D772D662D0994EEE6DE
:1008D000F0E080818260808384B5826084BD85B5CC
:1008E000856085BD8CE987BD0895FF27EDE561939F
:1008F00070832F923F924F925F926F927F928F926E
:100900009F92AF92BF92CF92DF92EF92FF920F939E
:100910001F93CF93DF93EDE581939083DF91CF9188
:100920001F910F91FF90EF90DF90CF90BF90AF900D
:100930009F908F907F906F905F904F903F902F90FF
:1009400008958FEF8093DF0110927401109273016C
:1009500010928301109282011092920110929101E3
:100960001092A1011092A0011092B0011092AF015B
:100970001092BF011092BE011092CE011092CD01D3
:100980001092DD011092DC011092DE011092E00164
:100990001092E1011092E2011092E301F89408959F
:1009A000EF92FF920F931F93CF93DF93CDB7DEB7F4
:1009B00028970FB6F894DEBF0FBECDBF9C838B8304
:1009C0002FE534E03A832983E3E7F1E020E030E0EB
:1009D000A081B181AB2BB9F02F5F3F4F3F962830FC
:1009E0003105B1F78EE091E00E94A90028960FB67C
:1009F000F894DEBF0FBECDBFDF91CF911F910F9155
:100A0000FF90EF9008958FE0829F8001839F100DEB
:100A100011240A591E4FD8012C938B819C81129668
:100A20009C938E93119784E190E014969C938E93FF
:100A3000139716965C934E931597CA014F83588768
:100A40006D837E830E94A206F801948783874F817D
:100A5000588541505109480F591F52874187508787
:100A6000478381E090E0968785878091DE018F5FE4
:100A70008093DE01278130858981D9018C93F9012A
:100A800031978A818083F90132978B818083F901C4
:100A900033978C818083F9013497D8011896FC93A1
:100AA000EE9317976D817E817B01CB010F96D70165
:100AB0004D917D0140833197D8011896FC93EE93B8
:100AC0001797E816F90699F7FB018785F9017397DF
:100AD00080838CCF7091DF017830B0F187E0809314
:100AE000DF0120E030E080E097E04FE0429FF0013E
:100AF000439FF00D1124EA59FE4F45855685452B3D
:100B000011F56FE00BC0629FF001639FF00D11249F
:100B1000EA59FE4F45855685452B09F52F5F3F4F16
:100B200027703327822F9213EECF9FE0899FF00129
:100B30001124EA59FE4F25853685232B21F4709325
:100B4000DF018FEF08950895272F30E02F5F3F4F8B
:100B500027703327822F721741F3972FC6CF08953E
:100B60000E946A058093DF018F3F51F180916E00F2
:100B7000826080936E0084B5826084BD85B5856097
:100B800085BD8CE987BD80E290E00E94A206BC0191
:100B90009093E5018093E401615E7F4F7093E701DC
:100BA0006093E601E091DF018FE0E89FF0011124FE
:100BB000EA59FE4F8781908501970E947504089538
:100BC00080E491E00C94A9001F920F920FB60F924F
:100BD00011240F931F932F933F934F935F936F9322
:100BE0007F938F939F93AF93BF93EF93FF93CF9395
:100BF000DF9300D0CDB7DEB78091DF018A830E94FA
:100C00006A058093DF018983EA814FE04E9FF001FE
:100C10001124EA59FE4F0981409F800111240A598D
:100C20001E4F8DB79EB743979087878381859285A6
:100C300027813085821B930B0196948383839A814D
:100C400089816DB77EB7981799F1E9816250710972
:100C50004E9FF0011124EA59FE4F8781908501973C
:100C60000E947504F8018781908544969087878358
:100C70008185928527813085821B930B0196948311
:100C800083830F900F90DF91CF91FF91EF91BF91F0
:100C9000AF919F918F917F916F915F914F913F9114
:100CA0002F911F910F910F900FBE0F901F901895CD
:100CB0008DB79EB76250710944970E947504D2CFD8
:100CC00086E691E008950E9480000E94A10447E218
:100CD00050E060E070E083E590E00E94D0040E9464
:100CE000B00580E090E00895A29FB001B39FC001DD
:100CF000A39F01D0B29F700D811D1124911D0895F5
:100D0000A1E21A2EAA1BBB1BFD010DC0AA1FBB1F0F
:100D1000EE1FFF1FA217B307E407F50720F0A21B81
:100D2000B30BE40BF50B661F771F881F991F1A94EE
:100D300069F760957095809590959B01AC01BD0118
:100D4000CF0108950F931F93CF93DF9382309105C6
:100D500010F482E090E0E091EA01F091EB0120E0F4
:100D600030E0C0E0D0E023C04081518148175907EE
:100D7000A8F04817590761F482819381209719F0F0
:100D80009B838A832EC09093EB018093EA0129C054
:100D90002115310529F04217530710F0A90102C0AF
:100DA000BE01DF0102811381EF019A01F801309742
:100DB000D9F62115310509F1281B390B24303105ED
:100DC00090F412968D919C9113976115710521F005
:100DD000FB019383828304C09093EB018093EA012B
:100DE000FD01329644C0FD01E20FF31F8193919300
:100DF000225031092D933C933AC02091E801309163
:100E0000E901232B41F42091020130910301309339
:100E1000E9012093E80120910001309101012115A1
:100E2000310541F42DB73EB74091040150910501C1
:100E3000241B350BE091E801F091E901E217F3077B
:100E4000A0F42E1B3F0B2817390778F0AC014E5F3A
:100E50005F4F2417350748F04E0F5F1F5093E9018D
:100E60004093E8018193919302C0E0E0F0E0CF016C
:100E7000DF91CF911F910F910895EF92FF920F9301
:100E80001F93CF93DF93009709F48EC0DC01129774
:100E900013961C921E921297E090EA01F090EB01DB
:100EA000E114F10489F42D913C911197280F391F19
:100EB0008091E8019091E9018217930789F5B09339
:100EC000E901A093E80170C0E70120E030E001C033
:100ED000EA01CA17DB0738F44A815B819E0141159C
:100EE0005105B1F722C0AC0142505109FA01D38338
:100EF000C28300811181BC01600F711F6C177D07D7
:100F000061F468817981600F711F6E5F7F4F71831B
:100F100060836A817B81738362832115310529F4A3
:100F2000B093EB01A093EA013FC0F901B383A28320
:100F3000E90149915991C40FD51FAC17BD0771F450
:100F4000DC019E918E91840F951F02969183808380
:100F500012968D919C91139793838283A0E0B0E0C9
:100F600002C0D7017C01F701828193810097C9F704
:100F7000C701029620813181820F931F2091E801E1
:100F80003091E9012817390779F4109729F4109264
:100F9000EB011092EA0104C013961C921E92129764
:100FA000F092E901E092E801CDB7DEB7E6E00C94FB
:100FB000E5072A88398848885F846E847D848C841C
:100FC0009B84AA84B984C884DF80EE80FD800C8174
:100FD0001B81AA81B981CE0FD11D0FB6F894DEBF57
:0C0FE0000FBECDBFED010895F894FFCFC7
:100FEC000000EC012000666F6F666F6F2000457289
:100FFC00726F723A204D6178696D756D20616D6FFD
:10100C00756E74206F6620746872656164732068F5
:10101C006173206265656E2072656163686564004A
:10102C004572726F723A204E6F20616374697665F7
:10103C00207468726561642063616E20626520664D
:06104C006F756E640000E8
:00000001FF
