:100000000C9434000C9451000C9451000C94510049
:100010000C9451000C9451000C9451000C9451001C
:100020000C9451000C9451000C9451000C9451000C
:100030000C9451000C9451000C9453070C945100F3
:100040000C9451000C9451000C9451000C945100EC
:100050000C9451000C9451000C9451000C945100DC
:100060000C9451000C94510011241FBECFEFD8E026
:10007000DEBFCDBF13E0A0E0B1E0E2E8F2E102C0F4
:1000800005900D92A234B107D9F713E0A2E4B3E0D2
:1000900001C01D92A43EB107E1F70E9498070C949D
:1000A0003F090C940000259A2D98181619066CF437
:1000B00020E030E0EFE9FFE03197F1F700C0000009
:1000C0002F5F3F4F28173907A9F7259A2D9A2FEF51
:1000D00033ED40E3215030404040E1F700C00000E4
:1000E000E2CF0E9481002FEF83ED90E3215080400A
:1000F0009040E1F700C0000088E091E00E94AA0073
:10010000F2CF82E08093C0001092C50080E180931E
:10011000C400E1ECF0E080818861808308958091E3
:10012000C000881F8827881F08958091C00087FD20
:1001300002C08FEF08958091C60008959091C1008C
:1001400095FDFCCF9091C00095FFF8CF8093C6003D
:1001500081E00895FC012081222371F03196809185
:10016000C10085FDFCCF8091C00085FFF8CF2093B2
:10017000C60021912111F3CF0895CF92DF92EF9223
:10018000FF920F931F93CF93DF93CDB7DEB7A09766
:100190000FB6F894DEBF0FBECDBF582F492F282FC2
:1001A000392FC12CD12C2115310509F05CC0C114A7
:1001B000D10409F458C0CC0CDD1CEE24E394F12CDE
:1001C000EC0EFD1E87010C0D1D1DE52FF42F9F0168
:1001D000ADECBCEC0E94BF079695879596958795E8
:1001E00096958795AC01440F551F9C01220F331F34
:1001F000220F331F220F331F420F531F9F01241B57
:10020000350B205D3F4FF801329322938F01FC01A3
:100210000E151F05E1F6F801EC0DFD1D118210828F
:1002200089819A81009781F0FE0133969091C100F7
:1002300095FDFCCF9091C00095FFF8CF8093C6004C
:1002400081919191009791F7A0960FB6F894DEBF37
:100250000FBECDBFDF91CF911F910F91FF90EF9017
:10026000DF90CF900895ADECBCEC0E94BF079C01DD
:100270003695279536952795369527958FEFC81A89
:10028000D80A91CF4F925F926F927F928F929F92F6
:10029000AF92BF92CF92DF92EF92FF920F931F9394
:1002A000CF93DF93CDB7DEB7C054D1090FB6F89422
:1002B000DEBF0FBECDBF4B015C019B01AC01C12C69
:1002C000D12C6AE0462E512C612C712C2115310560
:1002D0004105510509F065C0C114D10409F461C09C
:1002E000CC0CDD1CCC0CDD1CEE24E394F12CEC0ECC
:1002F000FD1E87010C0D1D1DB401C5012AE0822ED3
:10030000912CA12CB12CA50194010E94CB07DC01FA
:10031000CB01C096A11DB11DF801B293A293929397
:1003200082938F01B901CA01EE15FF0561F7EC0D4B
:10033000FD1D108211821282138289819A81AB8104
:10034000BC810097A105B105A1F0FE013596909101
:10035000C10095FDFCCF9091C00095FFF8CF809330
:10036000C60081919191A191B1910097A105B1052C
:1003700071F7C05CDF4F0FB6F894DEBF0FBECDBF84
:10038000DF91CF911F910F91FF90EF90DF90CF9071
:10039000BF90AF909F908F907F906F905F904F90A5
:1003A0000895CA01B901A30192010E94CB078FEF02
:1003B000C81AD80A8BCFCF93DF93CDB7DEB7A097FB
:1003C0000FB6F894DEBF0FBECDBF9C0140E050E0F9
:1003D0002115310509F057C04115510509F453C0E5
:1003E000BA01660F771FAE014F5F5F4FFA01E60F4C
:1003F000F71F9C01C9018F7099278C30910509F472
:100400004EC0B8F58A30910509F44FC08B30910584
:1004100069F1C09692938293329522952F7023278B
:100420003F702327E417F50729F7E60FF71F11821E
:10043000108289819A81009781F0FE013396909114
:10044000C10095FDFCCF9091C00095FFF8CF80933F
:10045000C60081919191009791F7A0960FB6F894FC
:10046000DEBF0FBECDBFDF91CF91089582E490E053
:10047000D1CF8E309105B1F078F08F30910549F6EB
:1004800086E490E0C7CF329522952F7023273F70E6
:1004900023274F5F5F4F9CCF84E490E0BBCF83E482
:1004A00090E0B8CF85E490E0B5CF81E490E0B2CFA2
:1004B0000F931F93CF93DF93CDB7DEB7C054D1090D
:1004C0000FB6F894DEBF0FBECDBFDB01AB01BC01A0
:1004D00000E010E0411551056105710509F04BC0C0
:1004E0000115110509F447C0000F111F000F111F5E
:1004F0009E012F5F3F4FF901E00FF11FAD01BC01DD
:100500001EC08A309105A105B10509F452C08B3097
:100510009105A105B10509F447C0C096A11DB11D03
:10052000B293A29392938293A4E0769567955795A0
:100530004795AA95D1F7E217F30709F43FC0DB010D
:10054000CA018F709927AA27BB278C309105A10576
:10055000B10501F1B0F28E309105A105B105A9F008
:10056000F0F08F309105A105B105B9F686E490E071
:10057000A0E0B0E0D5CF34E07695679557954795E4
:100580003A95D1F70F5F1F4FA5CF85E490E0A0E02B
:10059000B0E0C6CF83E490E0A0E0B0E0C1CF84E457
:1005A00090E0A0E0B0E0BCCF82E490E0A0E0B0E05A
:1005B000B7CF81E490E0A0E0B0E0B2CFE00FF11F50
:1005C000108211821282138289819A81AB81BC814F
:1005D0000097A105B105A1F0FE0135969091C100EB
:1005E00095FDFCCF9091C00095FFF8CF8093C60099
:1005F00081919191A191B1910097A105B10571F7F8
:10060000C05CDF4F0FB6F894DEBF0FBECDBFDF91E9
:10061000CF911F910F910895CF93DF9300D000D019
:1006200000D0CDB7DEB7982F20E030E04DEC91112F
:10063000A4C02115310509F4A0C0AE014C5F5F4F85
:10064000FA01E20FF31F982F7DEC979F812D112463
:10065000869586958695AAE08A9F90191124905DCB
:100660009293982FE417F50781F7E20FF31F10829A
:10067000262F80E090E03DEC211177C0009709F42F
:1006800074C09E012F5F3F4FF901E80FF91F562FED
:100690006DEC569F412D11244695469546957AE07E
:1006A000479F50191124505D5293542FE217F307BE
:1006B00081F7E80FF91F10828091C10085FDFCCF02
:1006C0008091C00085FFF8CF8BE18093C6008091B8
:1006D000C10085FDFCCF8091C00085FFF8CF8BE580
:1006E0008093C6009C81992379F0FE013596809114
:1006F000C10085FDFCCF8091C00085FFF8CF9093AD
:10070000C60091919111F3CF8091C10085FDFCCF7E
:100710008091C00085FFF8CF8BE38093C60099815C
:10072000992379F0FE0132968091C10085FDFCCFBE
:100730008091C00085FFF8CF9093C60091919111F0
:10074000F3CF8091C10085FDFCCF8091C00085FF73
:10075000F8CF88E48093C60026960FB6F894DEBFE3
:100760000FBECDBFDF91CF910895239F212D11247E
:1007700026952695269501967FCF949F912D11243D
:100780009695969596952F5F3F4F51CFCF93DF93D8
:1007900000D01F92CDB7DEB7982F20E030E04DECAF
:1007A000911158C02115310509F454C0AE014F5FB5
:1007B0005F4FFA01E20FF31F982F6DEC969F812D8A
:1007C00011248695869586957AE0879F9019112445
:1007D000905D9293982FE417F50781F7E20FF31FCE
:1007E00010828091C10085FDFCCF8091C00085FF03
:1007F000F8CF8BE18093C6008091C10085FDFCCFCE
:100800008091C00085FFF8CF8BE58093C600998169
:10081000992379F0FE0132968091C10085FDFCCFCD
:100820008091C00085FFF8CF9093C60091919111FF
:10083000F3CF8091C10085FDFCCF8091C00085FF82
:10084000F8CF8DE68093C6000F900F900F90DF9148
:10085000CF910895949F912D1124969596959695F4
:100860002F5F3F4F9DCF8091C10085FDFCCF8091D0
:10087000C00085FFF8CF8BE18093C6008091C10056
:1008800085FDFCCF8091C00085FFF8CF8BE580937C
:10089000C6008091C10085FDFCCF8091C00085FF1E
:1008A000F8CF82E38093C6008091C10085FDFCCF24
:1008B0008091C00085FFF8CF8AE48093C600089538
:1008C000EEE6F0E080818260808384B5826084BD42
:1008D00085B5856085BD8CE987BD089578948DB711
:1008E0009EB702969EBF8DBF08958FEF8093DB0366
:1008F00010925203109251031092650310926403F8
:10090000109278031092770310928B0310928A034F
:1009100010929E0310929D031092B1031092B003A7
:100920001092C4031092C3031092D7031092D603FF
:100930001092DA031092DC031092DD031092DE03B2
:100940001092DF03F89408950F931F93CF93DF93D2
:1009500000D000D000D0CDB7DEB79A83898320E0E5
:1009600030E083E1829F8001839F100D11240E5B94
:100970001C4FD8011F96ED91FC915097EF2BA1F0E1
:100980002F5F3F4F2830310569F783E191E00E94E6
:10099000AA0026960FB6F894DEBF0FBECDBFDF913A
:1009A000CF911F910F910895F801208389819A8139
:1009B0009283818384E190E094838383568345838B
:1009C000CA014D835E836B837C830E94ED07D8014F
:1009D0001C969C938E931B974D815E8141505109CB
:1009E000480F591F1A965C934E931997415051091D
:1009F00018965C934E9317976B817C811E967C931F
:100A00006E931D9781E090E050969C938E931F9774
:100A100052969C938E9351978091DA038F5F8093C7
:100A2000DA031796ED91FC9118978A8180831796C7
:100A3000ED91FC9118978981818317968D919C91F6
:100A40001897429718969C938E931797A2CF709100
:100A5000DB038091DB03883018F087E08093DB03B1
:100A60002091DB0330E02F5F3F4F27703327822F29
:100A70009091DB03291711F193E1929FF001939F6D
:100A8000F00D1124EE5BFC4F47855089452BB1F4E6
:100A900063E10BC0629FF001639FF00D1124EE5BD8
:100AA000FC4F47855089452B49F42F5F3F4F2770F6
:100AB0003327822F9091DB039213ECCF9091DB03CD
:100AC0009813089593E1899FF0011124EE5BFC4F88
:100AD00027853089232BA9F77093DB038FEF0895C7
:100AE000EC018B018091000190910101019761F46B
:100AF00061E085E00E940C0385E491E00E94AA0079
:100B00008DB79EB70E94BD00035011091EBF0DBFD7
:100B10008091000190910101019761F461E086E00C
:100B20000E940C038BE691E00E94AA008DB79EB74D
:100B30000E94BD002F923F924F925F926F927F92E0
:100B40008F929F92AF92BF92CF92DF92EF92FF92DD
:100B50000F931F93CF93DF93809100019091010138
:100B6000019761F461E087E00E940C0380E991E065
:100B70000E94AA008DB79EB70E94BD00E091DB03E2
:100B800013E11E9FF0011124EE5BFC4F4DB75EB7E1
:100B90004F5F5F4F5087478321853285241B350B7C
:100BA0002F5F3F4F348323832197DEBFCDBFC0919A
:100BB000DB030E942705189FF0011124EE5BFC4F18
:100BC000418552852DB73EB724173507C8F44385B4
:100BD00054852DB73EB72417350790F02DB73EB793
:100BE0002B5E3F4F308727838093DB03818592857F
:100BF00027813085821B930B01969483838321C0C8
:100C000083E1C89FF0011124EE5BFC4F2185328502
:100C10008DB79EB782179307A0F4238534858DB7CF
:100C20009EB78217930768F02DB73EB72B5E3F4FF4
:100C30003087278381859285821B930B019694834D
:100C400083838091000190910101019709F044C0D4
:100C500061E088E00E940C038CEA91E00E94AA0007
:100C60008DB79EB70E94BD0061E089E00E940C0331
:100C700084ED91E00E94AA0080915E0390915F0351
:100C80000E94BD0061E08AE00E940C038DEE91E0BD
:100C90000E94AA0080916003909161030E94BD00B0
:100CA00061E08BE00E940C0385E092E00E94AA00C4
:100CB00080914B0390914C030E94BD0061E08CE059
:100CC0000E940C038EE192E00E94AA0080914D03E5
:100CD00090914E030E94BD00DF91CF911F910F9123
:100CE000FF90EF90DF90CF90BF90AF909F908F904C
:100CF0007F906F905F904F903F902F908091000178
:100D0000909101019C012F5F3F4F3093010120938F
:100D10000001019709F063C061E08DE00E940C03BF
:100D200086E392E00E94AA008DB79EB70E94BD00A4
:100D300061E08EE00E940C0386E592E00E94AA002A
:100D40008091490390914A030E94BD0061E08FE0C9
:100D50000E940C0382E792E00E94AA0080915C034B
:100D600090915D030E94BD0061E080E10E940C0350
:100D70008EE892E00E94AA0080914503909146037C
:100D80000E94BD0061E081E10E940C0382EB92E0D1
:100D90000E94AA0080915803909159030E94BD00BF
:100DA00061E082E10E940C0386ED92E00E94AA00BD
:100DB0008091420390E00E94BD0061E083E10E94C7
:100DC0000C038FEE92E00E94AA0080915303909151
:100DD00054030E94BD0080E090E00E943F09E09132
:100DE000DB0323E12E9FF0011124EE5BFC4F818990
:100DF0009289892B21F1E091DB032E9FF0011124D0
:100E0000EE5BFC4F128A118A8091000190910101E2
:100E10009C012F5F3F4F3093010120930001019708
:100E200061F461E084E10E940C0389E093E00E9498
:100E3000AA0080E090E00E943F090E946E0408959D
:100E40000E9427058093DB038091DB038F3F39F1FC
:100E5000E091DB0383E1E89FF0011124EE5BFC4F9E
:100E600087819085BC016E5E7F4F708767839C0190
:100E70002F5E3F4F3EBF2DBF02970E9470058091AD
:100E80006E00826080936E0084B5826084BD85B5FB
:100E9000856085BD8CE987BD0E946E0408958CE154
:100EA00093E00C94AA001F920F920FB60F92112498
:100EB0002F933F934F935F936F937F938F939F9362
:100EC000AF93BF93CF93EF93FF93C091DB030E9447
:100ED00027052DB73EB7B9016F5F7F4F93E19C9F08
:100EE000F0011124EE5BFC4F70876783C817D9F0BF
:100EF000989FF0011124EE5BFC4F878190850E9442
:100F00007005FF91EF91CF91BF91AF919F918F911C
:100F10007F916F915F914F913F912F910F900FBEF5
:100F20000F901F901895C90143970E947005E9CF53
:100F3000CF93DF9300D0CDB7DEB784EF91E09A83F3
:100F400089830E9481000E94750449E250E0BE013D
:100F50006F5F7F4F83E590E00E94A40447E250E07A
:100F600060E070E081E790E00E94A4040E94200706
:100F700080E090E00F900F90DF91CF910895A29FB5
:100F8000B001B39FC001A39F01D0B29F700D811D1E
:100F90001124911D0895A1E21A2EAA1BBB1BFD016D
:100FA0000DC0AA1FBB1FEE1FFF1FA217B307E40748
:100FB000F50720F0A21BB30BE40BF50B661F771FA0
:100FC000881F991F1A9469F7609570958095909580
:100FD0009B01AC01BD01CF0108950F931F93CF93E7
:100FE000DF938230910510F482E090E0E091E2031B
:100FF000F091E30320E030E0C0E0D0E023C0408186
:10100000518148175907A8F04817590761F48281A0
:101010009381209719F09B838A832EC09093E303DA
:101020008093E20329C02115310529F042175307A7
:1010300010F0A90102C0BE01DF0102811381EF019E
:101040009A01F8013097D9F62115310509F1281BCD
:10105000390B2430310590F412968D919C911397A1
:101060006115710521F0FB019383828304C0909385
:10107000E3038093E203FD01329644C0FD01E20FD9
:10108000F31F81939193225031092D933C933AC0E1
:101090002091E0033091E103232B41F420910401DE
:1010A000309105013093E1032093E0032091020188
:1010B000309103012115310541F42DB73EB7409120
:1010C000060150910701241B350BE091E003F091DC
:1010D000E103E217F307A0F42E1B3F0B2817390793
:1010E00078F0AC014E5F5F4F2417350748F04E0F84
:1010F0005F1F5093E1034093E0038193919302C0FB
:10110000E0E0F0E0CF01DF91CF911F910F910895C2
:10111000EF92FF920F931F93CF93DF93009709F401
:101120008EC0DC01129713961C921E921297E090CB
:10113000E203F090E303E114F10489F42D913C9172
:101140001197280F391F8091E0039091E1038217D6
:10115000930789F5B093E103A093E00370C0E70122
:1011600020E030E001C0EA01CA17DB0738F44A8109
:101170005B819E0141155105B1F722C0AC0142507F
:101180005109FA01D383C28300811181BC01600F30
:10119000711F6C177D0761F468817981600F711F81
:1011A0006E5F7F4F718360836A817B81738362830B
:1011B0002115310529F4B093E303A093E2033FC066
:1011C000F901B383A283E90149915991C40FD51F55
:1011D000AC17BD0771F4DC019E918E91840F951FB1
:1011E00002969183808312968D919C91139793839D
:1011F0008283A0E0B0E002C0D7017C01F7018281C8
:1012000093810097C9F7C701029620813181820F2F
:10121000931F2091E0033091E1032817390779F4F7
:10122000109729F41092E3031092E20304C013967E
:101230001C921E921297F092E103E092E003CDB768
:10124000DEB7E6E00C9430092A88398848885F8444
:101250006E847D848C849B84AA84B984C884DF8056
:10126000EE80FD800C811B81AA81B981CE0FD11D3A
:101270000FB6F894DEBF0FBECDBFED010895F89410
:02128000FFCF9E
:1012820001000000E4032000466F6F466F6F466F57
:101292006F20004572726F723A204D6178696D75E8
:1012A2006D20616D6F756E74206F66207468726553
:1012B20061647320686173206265656E2072656186
:1012C2006368656400535020706F736974696F6E50
:1012D200206265666F72652061737369676E696EFD
:1012E20067206F6C645F74703A2000535020706FF7
:1012F200736974696F6E20616674657220617373BD
:1013020069676E696E67206F6C645F74703A200063
:10131200535020706F736974696F6E2061667465D3
:10132200722070757368696E673A2000535020709E
:101332006F736974696F6E2061667465722073776A
:1013420069746368696E6720746F206E65775F7475
:10135200703A200062617365206164647265737320
:1013620020666F722073746174733A2000656E6434
:10137200206164647265737320666F722073746196
:1013820074733A20006261736520616464726573EC
:101392007320666F7220626C696E6B3A2000656E14
:1013A20064206164647265737320666F7220626C7C
:1013B200696E6B3A20005072696E74696E67206FB5
:1013C2007574205350206265666F72652072657471
:1013D20075726E3A2000746F73206F6620626C69BA
:1013E2006E6B2074687265616420737461636B3A1A
:1013F2002000746F73206F6620737461747320749D
:10140200687265616420737461636B3A200073745F
:1014120061636B207573616765206F6620626C691A
:101422006E6B2074687265616420737461636B3AD9
:101432002000737461636B207573616765206F664A
:1014420020737461747320746872656164207374AC
:1014520061636B3A2000637572725F7468726561D2
:10146200642D3E7468726561645F69643A2000634A
:101472007572725F7468726561642D3E6E65775F26
:101482007468726561643A200067657474696E6796
:10149200206865726520696E206373004572726F01
:1014A200723A204E6F2061637469766520746872A7
:1014B2006561642063616E20626520666F756E648B
:0214C200000028
:00000001FF
