:100000000C9434000C9451000C9451000C94510049
:100010000C9451000C9451000C9451000C9451001C
:100020000C9451000C9451000C9451000C9451000C
:100030000C9451000C9451000C943A050C9451000E
:100040000C9451000C9451000C9451000C945100EC
:100050000C9451000C9451000C9451000C945100DC
:100060000C9451000C94510011241FBECFEFD8E026
:10007000DEBFCDBF11E0A0E0B1E0ECEDFEE002C0DC
:1000800005900D92A039B107D9F722E0A0E9B1E0BF
:1000900001C01D92AE31B207E1F70E94EB050C944E
:1000A0006C070C940000259A2D98009769F020E0C9
:1000B00030E0EFE9FFE03197F1F700C000002F5F7B
:1000C0003F4F28173907A9F7259A2D9AFFEF23EDFF
:1000D00030E3F15020403040E1F700C00000E3CFB2
:1000E0000E94E805EC010E94A2032FEF89E698E147
:1000F000215080409040E1F700C0000061E081E0C5
:100100000E94AD0281E20E94530386E091E00E94CA
:100110006C012FEF89E698E1215080409040E1F793
:1001200000C000000E94A203C258DF4F88EEC82E14
:1001300083E0D82EE12CF12C2FEF89E698E12150B5
:1001400080409040E1F700C000008FE10E9453031F
:1001500061E082E00E94AD028AE191E00E946C01C0
:1001600040919001509191016091920170919301A1
:1001700088819981AA81BB81480F591F6A1F7B1F03
:100180004093900150939101609392017093930179
:1001900060919001709191018091920190919301F1
:1001A000A70196010E941A06CA01B9010E947F01A7
:1001B00088E291E00E946C01BFCF4F925F926F92F4
:1001C0007F92AF92BF92CF92DF92EF92FF920F9306
:1001D0001F93CF93DF93CDB7DEB72B970FB6F8946D
:1001E000DEBF0FBECDBF8B019C015A016A01E12C1D
:1001F000F12C8AE0482E512C612C712C01C07A011F
:10020000C901B801A30192010E941A0689019A014D
:10021000A7014F5F5F4F605D7F4FF60161936F01F4
:10022000011511052105310551F7F501E40FF51F01
:100230001082FE01319601C0FC01CF010196D5016B
:10024000AE0DBF1D2C912083F1E0EF1AF108A0F74D
:10025000BE016F5F7F4FC5010E9463072B960FB6EB
:10026000F894DEBF0FBECDBFDF91CF911F910F91EC
:10027000FF90EF90DF90CF90BF90AF907F906F9006
:100280005F904F90089582E08093C0001092C50067
:1002900080E18093C400E1ECF0E08081886180839C
:1002A00008958091C000881F8827881F0895809135
:1002B000C00087FD02C08FEF08958091C6000895A9
:1002C0009091C10095FDFCCF9091C00095FFF8CFB3
:1002D0008093C60081E00895FC012081222371F003
:1002E00031968091C10085FDFCCF8091C00085FFD3
:1002F000F8CF2093C60021912111F3CF0895CF9319
:10030000DF93CDB7DEB72B970FB6F894DEBF0FBEE5
:10031000CDBF19821A821B821C82FE01359627E00E
:10032000DF011D922A95E9F7AE014F5F5F4F0E94F2
:10033000DD009981992379F0FE0132968091C10008
:1003400085FDFCCF8091C00085FFF8CF9093C6005B
:1003500091919111F3CF2B960FB6F894DEBF0FBE9B
:10036000CDBFDF91CF910895BC0180E090E00C9467
:100370007F01CF93DF93CDB7DEB727970FB6F89401
:10038000DEBF0FBECDBF27E0E2E3F1E0DE01119654
:1003900001900D922A95E1F7FE013696B6E4A5E4A8
:1003A00074E463E452E441E414C02B303105E1F11C
:1003B0002C303105D9F12D303105D1F12E303105F8
:1003C000C9F12F303105C1F1205D208331970097AD
:1003D00081F09C012F703327929582958F70892729
:1003E0009F7089272A30310501F7408331970097A4
:1003F00081F79981992379F0FE0132968091C100AD
:1004000085FDFCCF8091C00085FFF8CF9093C6009A
:1004100091919111F3CF27960FB6F894DEBF0FBEDE
:10042000CDBFDF91CF9108955083D0CF6083CECFE1
:100430007083CCCFA083CACFB083C8CFEF92FF9296
:100440000F931F93CF93DF93CDB7DEB72B970FB6E4
:10045000F894DEBF0FBECDBF27E0E2E3F1E0DE019E
:10046000119601900D922A95E1F7188619861A8641
:100470001B86FE013A9626E4E22E35E4F32EB4E420
:10048000A3E452E441E426C00B30110521053105F7
:1004900009F459C00C3011052105310509F455C086
:1004A0000D3011052105310509F451C00E3011053B
:1004B0002105310509F44DC00F3011052105310525
:1004C00009F449C0005D008331976115710581050C
:1004D0009105D1F08B019C010F7011272227332742
:1004E000689413F896958795779567951694D1F744
:1004F0000A3011052105310539F640833197611520
:1005000071058105910531F79981992379F0FE01F3
:1005100032968091C10085FDFCCF8091C00085FF9F
:10052000F8CF9093C60091919111F3CF2B960FB60F
:10053000F894DEBF0FBECDBFDF91CF911F910F9119
:10054000FF90EF9008955083BFCFA083BDCFB083BD
:10055000BBCFF082B9CFE082B7CF0F931F93CF9379
:10056000DF9300D000D000D0CDB7DEB7082F162F14
:100570001C821D821E8219821A821B82682F70E0E3
:1005800080E090E0AE014C5F5F4F0E94DD00612F84
:1005900070E080E090E0AE014F5F5F4F0E94DD00B1
:1005A0009091C10095FDFCCF9091C00095FFF8CFD0
:1005B0008BE18093C6009091C10095FDFCCF909196
:1005C000C00095FFF8CF8BE58093C6009C810A3070
:1005D000E0F58091C10085FDFCCF8091C00085FFD2
:1005E000F8CF9093C6008091C10085FDFCCF80912B
:1005F000C00085FFF8CF8BE38093C60099811A3045
:1006000088F58091C10085FDFCCF8091C00085FFF9
:10061000F8CF9093C6008091C10085FDFCCF8091FA
:10062000C00085FFF8CF88E48093C60026960FB6F9
:10063000F894DEBF0FBECDBFDF91CF911F910F9118
:1006400008958091C00085FD16C08091C10085FF8E
:10065000F8CF8091C10085FDF8CFF3CF8091C00025
:1006600085FD15C08091C10085FFF8CF8091C10044
:1006700085FDF8CFF3CF9093C6009D818091C10096
:1006800085FDFCCF8091C00085FFF8CFAACF909365
:10069000C6009A818091C10085FDFCCF8091C00089
:1006A00085FFF8CFB6CFCF93DF9300D01F92CDB7A1
:1006B000DEB719821A821B82682F70E080E090E01A
:1006C000AE014F5F5F4F0E94DD008091C10085FD4C
:1006D000FCCF8091C00085FFF8CF8BE18093C600EE
:1006E0008091C10085FDFCCF8091C00085FFF8CFCF
:1006F0008BE58093C60099818091C10085FDFCCF78
:100700008091C00085FFF8CF9093C6009A818091B8
:10071000C10085FDFCCF8091C00085FFF8CF90938C
:10072000C6008091C10085FDFCCF8091C00085FF8F
:10073000F8CF8DE68093C6000F900F900F90DF9159
:10074000CF9108958091C10085FDFCCF8091C000BC
:1007500085FFF8CF8BE18093C6008091C10085FDB5
:10076000FCCF8091C00085FFF8CF8BE58093C60059
:100770008091C10085FDFCCF8091C00085FFF8CF3E
:1007800082E38093C6008091C10085FDFCCF8091FB
:10079000C00085FFF8CF8AE48093C600089578945E
:1007A000E22DF32D952D842D772D662D0994EEE6FF
:1007B000F0E080818260808384B5826084BD85B5ED
:1007C000856085BD8CE987BD0895FF27EDE56193C0
:1007D00070832F923F924F925F926F927F928F928F
:1007E0009F92AF92BF92CF92DF92EF92FF920F93C0
:1007F0001F93CF93DF93EDE581939083DF91CF91AA
:100800001F910F91FF90EF90DF90CF90BF90AF902E
:100810009F908F907F906F905F904F903F902F9020
:1008200008958FEF8093110280E090E02FE0289FE1
:10083000F001299FF00D1124E856FE4F168615860B
:1008400001968830910599F71092100210921602C5
:1008500010921702109218021092190210921202AE
:10086000109213021092140210921502F894089537
:100870000F931F93CF93DF93CDB7DEB728970FB6B3
:10088000F894DEBF0FBECDBF9C838B832FEC33E08B
:100890003A83298320E030E08FE0829F8001839FAC
:1008A000100D112408561E4FD8011D96ED91FC9194
:1008B0001E97EF2BA1F02F5F3F4F2830310569F7CE
:1008C00089E391E00E946C0128960FB6F894DEBF90
:1008D0000FBECDBFDF91CF911F910F910895F80109
:1008E00020838B819C819283818384E190E0948337
:1008F000838356834583CA014F8358876D837E83E4
:100900000E943C06D8011C969C938E931B974F81A6
:10091000588541505109480F591F1A965C934E93C0
:10092000199718965C934E93179781E090E01E9666
:100930009C938E931D97809110028F5F809310027D
:100940001796ED91FC911897CF01019718969C93FB
:100950008E931797898180831796ED91FC91189754
:10096000CF01019718969C938E9317978A81808365
:100970001796ED91FC911897CF01019718969C93CB
:100980008E9317978B8180831796ED91FC91189722
:10099000CF01019718969C938E9317978C81808333
:1009A0006D817E81FB019B01215F3F4FD80117962E
:1009B0004D915C911897CA01019718969C938E935C
:1009C00017978191DA018C93E217F30779F7D80131
:1009D0001796ED91FC911897DB011F968C918083FF
:1009E00073CF7091110280911102883018F087E066
:1009F000809311022091110230E02F5F3F4F27704A
:100A00003327822F90911102291711F19FE0929FB5
:100A1000F001939FF00D1124E856FE4F4585568551
:100A2000452BB1F46FE00BC0629FF001639FF00DA6
:100A30001124E856FE4F45855685452B49F42F5F16
:100A40003F4F27703327822F909111029213ECCFE2
:100A500090911102981308959FE0899FF00111244D
:100A6000E856FE4F25853685232BA9F77093110292
:100A70008FEF08951F920F920FB60F9211240F93CC
:100A80001F932F933F934F935F936F937F938F9316
:100A90009F93AF93BF93EF93FF93CF93DF9300D0D8
:100AA000CDB7DEB7E6E1F2E080819181A281B3812A
:100AB0000A96A11DB11D80839183A283B383E2E1D5
:100AC000F2E080819181A281B3810196A11DB11DC7
:100AD00080839183A283B38301E112E0F8018081D6
:100AE0008A830E94F104F80180838983EA818FE080
:100AF000E89FF0011124E856FE4F8DB79EB743974B
:100B0000908787838185928527813085821B930B0F
:100B10000196948383836DB77EB7E9818FE0E89F68
:100B2000F0011124E856FE4F8781908562507109CB
:100B300001970E94E5030F900F90DF91CF91FF91F5
:100B4000EF91BF91AF919F918F917F916F915F9145
:100B50004F913F912F911F910F910F900FBE0F90CA
:100B60001F9018950E94F104809311028091110248
:100B70008F3F51F180916E00826080936E0084B54A
:100B8000826084BD85B5856085BD8CE987BD80E2C6
:100B900090E00E943C069093950180939401BC01E3
:100BA000615E7F4F7093970160939601E09111020F
:100BB0008FE0E89FF0011124E856FE4F8781908571
:100BC00001970E94E50308958BE691E00C946C0177
:100BD00088E991E00895CF93DF9300D0CDB7DEB7D9
:100BE00084EF91E09A838983109290011092910191
:100BF00010929201109293010E9443010E941104ED
:100C000048E350E0BE016F5F7F4F83E590E00E94B4
:100C1000380446E350E060E070E080E790E00E9436
:100C200038040E94B20580E090E00F900F90DF91B1
:100C3000CF910895A1E21A2EAA1BBB1BFD010DC086
:100C4000AA1FBB1FEE1FFF1FA217B307E407F5077C
:100C500020F0A21BB30BE40BF50B661F771F881F58
:100C6000991F1A9469F760957095809590959B01EE
:100C7000AC01BD01CF010895CF93DF938230910580
:100C800010F482E090E0E0911C02F0911D0220E05F
:100C900030E0A0E0B0E0309739F140815181481751
:100CA0005907B8F04817590771F48281938110975A
:100CB00029F013969C938E9312972CC090931D024B
:100CC00080931C0227C02115310531F042175307CC
:100CD00018F0A901DB0101C0EF019A01BD01DF019C
:100CE0000280F381E02DD7CF21153105F9F0281BC3
:100CF000390B2430310580F48A819B81611571059F
:100D000021F0FB019383828304C090931D028093A2
:100D10001C02FE01329644C0FE01E20FF31F8193D4
:100D2000919322503109398328833AC020911A02C5
:100D300030911B02232B41F42091020130910301D9
:100D400030931B0220931A0220910001309101017F
:100D50002115310541F42DB73EB740910401509162
:100D60000501241B350BE0911A02F0911B02E217DA
:100D7000F307A0F42E1B3F0B2817390778F0AC01BE
:100D80004E5F5F4F2417350748F04E0F5F1F50939B
:100D90001B0240931A028193919302C0E0E0F0E0BD
:100DA000CF01DF91CF910895CF93DF93009709F49E
:100DB00087C0FC01329713821282C0911C02D0912D
:100DC0001D02209781F420813181280F391F8091E5
:100DD0001A0290911B028217930779F5F0931B0278
:100DE000E0931A026DC0DE0120E030E0AE17BF07CD
:100DF00050F412964D915C9113979D014115510548
:100E000009F1DA01F3CFB383A28340815181840FCA
:100E1000951F8A179B0771F48D919C911197840FF0
:100E2000951F02969183808312968D919C911397C2
:100E3000938382832115310529F4F0931D02E093F9
:100E40001C023EC0D9011396FC93EE9312974D916C
:100E50005D91A40FB51FEA17FB0779F4808191819A
:100E6000840F951F0296D90111969C938E938281CF
:100E7000938113969C938E931297E0E0F0E08A8121
:100E80009B81009719F0FE01EC01F9CFCE0102968B
:100E900028813981820F931F20911A0230911B0201
:100EA0002817390769F4309729F410921D0210921F
:100EB0001C0202C013821282D0931B02C0931A023A
:100EC000DF91CF910895FB01DC0102C001900D92EA
:0C0ED00041505040D8F70895F894FFCF2F
:100EDC0000001E022000456E746572696E67205317
:100EEC0074617473204C6F6F700053797374656DFB
:100EFC002074696D653A2000207365636F6E6473AE
:100F0C002E00307830303030004572726F723A20DB
:100F1C004D6178696D756D20616D6F756E74206FA4
:100F2C006620746872656164732068617320626501
:100F3C00656E2072656163686564004572726F72DC
:100F4C003A204E6F2061637469766520746872650F
:100F5C0061642063616E20626520666F756E64004B
:00000001FF
