:100000000C9434000C9451000C9451000C94510049
:100010000C9451000C9451000C9451000C9451001C
:100020000C9451000C9451000C9451000C9451000C
:100030000C9451000C9451000C949D060C945100AA
:100040000C9451000C9451000C9451000C945100EC
:100050000C9451000C9451000C9451000C945100DC
:100060000C9451000C94510011241FBECFEFD8E026
:10007000DEBFCDBF12E0A0E0B1E0E2E9F1E102C0F5
:1000800005900D92AA39B107D9F713E0AAE9B2E0B9
:1000900001C01D92A532B107E1F70E9428070C9418
:1000A000C7080C940000259A2D98181619066CF4B0
:1000B00020E030E0EFE9FFE03197F1F700C0000009
:1000C0002F5F3F4F28173907A9F7259A2D9A2FEF51
:1000D00033ED40E3215030404040E1F700C00000E4
:1000E000E2CF0E9481002FEF83ED90E3215080400A
:1000F0009040E1F700C0000086E091E00E94AA0075
:10010000F2CF82E08093C0001092C50080E180931E
:10011000C400E1ECF0E080818861808308958091E3
:10012000C000881F8827881F08958091C00087FD20
:1001300002C08FEF08958091C60008959091C1008C
:1001400095FDFCCF9091C00095FFF8CF8093C6003D
:1001500081E00895FC012081222371F03196809185
:10016000C10085FDFCCF8091C00085FFF8CF2093B2
:10017000C60021912111F3CF0895CF92DF92EF9223
:10018000FF920F931F93CF93DF93CDB7DEB7A09766
:100190000FB6F894DEBF0FBECDBF582F492F282FC2
:1001A000392FC12CD12C2115310509F05CC0C114A7
:1001B000D10409F458C0CC0CDD1CEE24E394F12CDE
:1001C000EC0EFD1E87010C0D1D1DE52FF42F9F0168
:1001D000ADECBCEC0E944707969587959695879560
:1001E00096958795AC01440F551F9C01220F331F34
:1001F000220F331F220F331F420F531F9F01241B57
:10020000350B205D3F4FF801329322938F01FC01A3
:100210000E151F05E1F6F801EC0DFD1D118210828F
:1002200089819A81009781F0FE0133969091C100F7
:1002300095FDFCCF9091C00095FFF8CF8093C6004C
:1002400081919191009791F7A0960FB6F894DEBF37
:100250000FBECDBFDF91CF911F910F91FF90EF9017
:10026000DF90CF900895ADECBCEC0E9447079C0155
:100270003695279536952795369527958FEFC81A89
:10028000D80A91CF4F925F926F927F928F929F92F6
:10029000AF92BF92CF92DF92EF92FF920F931F9394
:1002A000CF93DF93CDB7DEB7C054D1090FB6F89422
:1002B000DEBF0FBECDBF4B015C019B01AC01C12C69
:1002C000D12C6AE0462E512C612C712C2115310560
:1002D0004105510509F065C0C114D10409F461C09C
:1002E000CC0CDD1CCC0CDD1CEE24E394F12CEC0ECC
:1002F000FD1E87010C0D1D1DB401C5012AE0822ED3
:10030000912CA12CB12CA50194010E945307DC0172
:10031000CB01C096A11DB11DF801B293A293929397
:1003200082938F01B901CA01EE15FF0561F7EC0D4B
:10033000FD1D108211821282138289819A81AB8104
:10034000BC810097A105B105A1F0FE013596909101
:10035000C10095FDFCCF9091C00095FFF8CF809330
:10036000C60081919191A191B1910097A105B1052C
:1003700071F7C05CDF4F0FB6F894DEBF0FBECDBF84
:10038000DF91CF911F910F91FF90EF90DF90CF9071
:10039000BF90AF909F908F907F906F905F904F90A5
:1003A0000895CA01B901A30192010E9453078FEF7A
:1003B000C81AD80A8BCFCF93DF93CDB7DEB7A097FB
:1003C0000FB6F894DEBF0FBECDBF9C0140E050E0F9
:1003D0002115310509F057C04115510509F453C0E5
:1003E000BA01660F771FAE014F5F5F4FFA01E60F4C
:1003F000F71F9C01C9018F7099278C30910509F472
:100400004EC0B8F58A30910509F44FC08B30910584
:1004100069F1C09692938293329522952F7023278B
:100420003F702327E417F50729F7E60FF71F11821E
:10043000108289819A81009781F0FE013396909114
:10044000C10095FDFCCF9091C00095FFF8CF80933F
:10045000C60081919191009791F7A0960FB6F894FC
:10046000DEBF0FBECDBFDF91CF91089582E490E053
:10047000D1CF8E309105B1F078F08F30910549F6EB
:1004800086E490E0C7CF329522952F7023273F70E6
:1004900023274F5F5F4F9CCF84E490E0BBCF83E482
:1004A00090E0B8CF85E490E0B5CF81E490E0B2CFA2
:1004B0000F931F93CF93DF93CDB7DEB7C054D1090D
:1004C0000FB6F894DEBF0FBECDBFDB01AB01BC01A0
:1004D00000E010E0411551056105710509F04BC0C0
:1004E0000115110509F447C0000F111F000F111F5E
:1004F0009E012F5F3F4FF901E00FF11FAD01BC01DD
:100500001EC08A309105A105B10509F452C08B3097
:100510009105A105B10509F447C0C096A11DB11D03
:10052000B293A29392938293A4E0769567955795A0
:100530004795AA95D1F7E217F30709F43FC0DB010D
:10054000CA018F709927AA27BB278C309105A10576
:10055000B10501F1B0F28E309105A105B105A9F008
:10056000F0F08F309105A105B105B9F686E490E071
:10057000A0E0B0E0D5CF34E07695679557954795E4
:100580003A95D1F70F5F1F4FA5CF85E490E0A0E02B
:10059000B0E0C6CF83E490E0A0E0B0E0C1CF84E457
:1005A00090E0A0E0B0E0BCCF82E490E0A0E0B0E05A
:1005B000B7CF81E490E0A0E0B0E0B2CFE00FF11F50
:1005C000108211821282138289819A81AB81BC814F
:1005D0000097A105B105A1F0FE0135969091C100EB
:1005E00095FDFCCF9091C00095FFF8CF8093C60099
:1005F00081919191A191B1910097A105B10571F7F8
:10060000C05CDF4F0FB6F894DEBF0FBECDBFDF91E9
:10061000CF911F910F910895CF93DF9300D000D019
:1006200000D0CDB7DEB7982F20E030E04DEC91112F
:10063000A4C02115310509F4A0C0AE014C5F5F4F85
:10064000FA01E20FF31F982F7DEC979F812D112463
:10065000869586958695AAE08A9F90191124905DCB
:100660009293982FE417F50781F7E20FF31F10829A
:10067000262F80E090E03DEC211177C0009709F42F
:1006800074C09E012F5F3F4FF901E80FF91F562FED
:100690006DEC569F412D11244695469546957AE07E
:1006A000479F50191124505D5293542FE217F307BE
:1006B00081F7E80FF91F10828091C10085FDFCCF02
:1006C0008091C00085FFF8CF8BE18093C6008091B8
:1006D000C10085FDFCCF8091C00085FFF8CF8BE580
:1006E0008093C6009C81992379F0FE013596809114
:1006F000C10085FDFCCF8091C00085FFF8CF9093AD
:10070000C60091919111F3CF8091C10085FDFCCF7E
:100710008091C00085FFF8CF8BE38093C60099815C
:10072000992379F0FE0132968091C10085FDFCCFBE
:100730008091C00085FFF8CF9093C60091919111F0
:10074000F3CF8091C10085FDFCCF8091C00085FF73
:10075000F8CF88E48093C60026960FB6F894DEBFE3
:100760000FBECDBFDF91CF910895239F212D11247E
:1007700026952695269501967FCF949F912D11243D
:100780009695969596952F5F3F4F51CFCF93DF93D8
:1007900000D01F92CDB7DEB7982F20E030E04DECAF
:1007A000911158C02115310509F454C0AE014F5FB5
:1007B0005F4FFA01E20FF31F982F6DEC969F812D8A
:1007C00011248695869586957AE0879F9019112445
:1007D000905D9293982FE417F50781F7E20FF31FCE
:1007E00010828091C10085FDFCCF8091C00085FF03
:1007F000F8CF8BE18093C6008091C10085FDFCCFCE
:100800008091C00085FFF8CF8BE58093C600998169
:10081000992379F0FE0132968091C10085FDFCCFCD
:100820008091C00085FFF8CF9093C60091919111FF
:10083000F3CF8091C10085FDFCCF8091C00085FF82
:10084000F8CF8DE68093C6000F900F900F90DF9148
:10085000CF910895949F912D1124969596959695F4
:100860002F5F3F4F9DCF8091C10085FDFCCF8091D0
:10087000C00085FFF8CF8BE18093C6008091C10056
:1008800085FDFCCF8091C00085FFF8CF8BE580937C
:10089000C6008091C10085FDFCCF8091C00085FF1E
:1008A000F8CF82E38093C6008091C10085FDFCCF24
:1008B0008091C00085FFF8CF8AE48093C600089538
:1008C000EEE6F0E080818260808384B5826084BD42
:1008D00085B5856085BD8CE987BD0895EC018B01E8
:1008E00081E080939A0261E00E940C038DE091E028
:1008F0000E94AA008DB79EB70E94BD000350110947
:100900001EBF0DBF80919A028F5F80939A0261E0B3
:100910000E940C038CE391E00E94AA0080919A024D
:100920008F5F80939A0261E00E940C03EDB7FEB7DF
:10093000818190E00E94DB0180919A028F5F809319
:100940009A0261E00E940C03EDB7FEB7828190E04D
:100950000E94DB0180919A028F5F80939A0261E08E
:100960000E940C038DE491E00E94AA0080919A02FB
:100970008F5F80939A0261E00E940C03EDB7FEB78F
:10098000838190E00E94DB0180919A028F5F8093C7
:100990009A0261E00E940C03EDB7FEB7848190E0FB
:1009A0000E94DB0180919A028F5F80939A0261E03E
:1009B0000E940C0386E591E00E94AA008DB79EB7C5
:1009C0000E94BD002F923F924F925F926F927F9252
:1009D0008F929F92AF92BF92CF92DF92EF92FF924F
:1009E0000F931F93CF93DF9380919A028F5F809331
:1009F0009A0261E00E940C038CE691E00E94AA003A
:100A00008DB79EB70E94BD002197DEBFCDBF8091FC
:100A10009A028F5F80939A0261E00E940C0388E83B
:100A200091E00E94AA008DB79EB70E94BD00DF91A1
:100A3000CF911F910F91FF90EF90DF90CF90BF90DB
:100A4000AF909F908F907F906F905F904F903F906E
:100A50002F9080919A028F5F80939A0261E00E94AA
:100A60000C0380EB91E00E94AA008DB79EB70E9414
:100A7000BD0080919A028F5F80939A0261E00E948C
:100A80000C038CE391E00E94AA0080919A028F5F90
:100A900080939A0261E00E940C03EDB7FEB781815A
:100AA00090E00E94DB0180919A028F5F80939A020E
:100AB00061E00E940C03EDB7FEB7828190E00E94D6
:100AC000DB0180919A028F5F80939A0261E00E941D
:100AD0000C038DE491E00E94AA0080919A028F5F3E
:100AE00080939A0261E00E940C03EDB7FEB7838108
:100AF00090E00E94DB0180919A028F5F80939A02BE
:100B000061E00E940C03EDB7FEB7848190E00E9483
:100B1000DB0108957894EEE6F0E0808182608083C6
:100B200084B5826084BD85B5856085BD8CE987BD4F
:100B30008DB79EB702969EBF8DBF08958FEF8093AD
:100B40001C031092AA021092BA021092CA021092CA
:100B5000DA021092EA021092FA0210920A0310923C
:100B60001A0310921B0310921D0310921E03109281
:100B70001F0310922003F89408950F931F93CF93AF
:100B8000DF9300D000D000D0CDB7DEB79A83898341
:100B9000EAEAF2E020E030E080818823A9F02F5FCC
:100BA0003F4F709628303105B9F780ED91E00E94F3
:100BB000AA0026960FB6F894DEBF0FBECDBFDF9118
:100BC000CF911F910F910895890102951295107F81
:100BD0001027007F102705561D4FD8012C938981BF
:100BE0009A8112969C938E93119784E190E01496CB
:100BF0009C938E93139716965C934E931597CA0108
:100C00004D835E836B837C830E947507F801948714
:100C100083874D815E8141505109480F591F52878A
:100C2000418741505109508747836B817C8176878A
:100C3000658781E0878780911B038F5F80931B030B
:100C40000780F085E02D8A818083D8011796ED9189
:100C5000FC9118978981818317968D919C911897A3
:100C6000429718969C938E931797A3CF50911C038D
:100C70005830A8F187E080931C0320E030E080E04A
:100C800047E0F901E295F295F07FFE27E07FFE272D
:100C9000E556FD4F9785992369F020C0F901E2954B
:100CA000F295F07FFE27E07FFE27E556FD4F978502
:100CB000911120C02F5F3F4F27703327822F42139F
:100CC000EDCF90E1899FF0011124E556FD4F978506
:100CD000911104C050931C038FEF08950895252FA0
:100CE00030E02F5F3F4F27703327822F521749F391
:100CF000452FC7CF08950E94360680931C038F3F6F
:100D0000C1F090E1899FF0011124E556FD4F8781E4
:100D10009085BC016E5E7F4F708767839C012F5E5C
:100D20003F4F3EBF2DBF02970E946E040E948A056E
:100D3000089582E092E00C94AA001F920F920FB6E1
:100D40000F92112480919A028F5F80939A0261E042
:100D50000E940C0387E292E00E94AA00CCE1D3E05B
:100D6000888190E00E94BD0080919A028F5F8093FD
:100D70009A0261E00E940C0388E392E00E94AA00BC
:100D80008DB79EB70E94BD0080919A028F5F8093BD
:100D90009A0261E00E940C03EDB7FEB7848190E0F7
:100DA0000E94DB0180919A028F5F80939A0261E03A
:100DB0000E940C03EDB7FEB7858190E00E94DB0135
:100DC000D8810E943606C82F80919A028F5F809347
:100DD0009A0261E00E940C0388E492E00E94AA005B
:100DE0008C2F90E00E94BD0080919A028F5F8093CB
:100DF0009A0261E00E940C0381E592E00E94AA0041
:100E00006DB77EB76F5F7F4F80E1D89FD00111240F
:100E1000A556BD4F18967C936E93179780E1C89F97
:100E2000F0011124E556FD4F878190850E946E04E4
:100E300080919A028F5F80939A0261E00E940C0376
:100E400080E792E00E94AA0080E090E00E94C7083C
:100E5000CF93DF9300D0CDB7DEB784EF91E09A83D4
:100E600089830E9481000E949E0549E250E0BE01F4
:100E70006F5F7F4F83E590E00E94BD050E947B0677
:100E800080E090E00F900F90DF91CF910895A29FA6
:100E9000B001B39FC001A39F01D0B29F700D811D0F
:100EA0001124911D0895A1E21A2EAA1BBB1BFD015E
:100EB0000DC0AA1FBB1FEE1FFF1FA217B307E40739
:100EC000F50720F0A21BB30BE40BF50B661F771F91
:100ED000881F991F1A9469F7609570958095909571
:100EE0009B01AC01BD01CF0108950F931F93CF93D8
:100EF000DF938230910510F482E090E0E0912303CB
:100F0000F091240320E030E0C0E0D0E023C0408135
:100F1000518148175907A8F04817590761F4828191
:100F20009381209719F09B838A832EC0909324038A
:100F30008093230329C02115310529F04217530757
:100F400010F0A90102C0BE01DF0102811381EF018F
:100F50009A01F8013097D9F62115310509F1281BBE
:100F6000390B2430310590F412968D919C91139792
:100F70006115710521F0FB019383828304C0909376
:100F8000240380932303FD01329644C0FD01E20F48
:100F9000F31F81939193225031092D933C933AC0D2
:100FA0002091210330912203232B41F4209102014F
:100FB00030910301309322032093210320910001FB
:100FC000309101012115310541F42DB73EB7409113
:100FD000040150910501241B350BE0912103F09190
:100FE0002203E217F307A0F42E1B3F0B2817390743
:100FF00078F0AC014E5F5F4F2417350748F04E0F75
:101000005F1F50932203409321038193919302C069
:10101000E0E0F0E0CF01DF91CF911F910F910895B3
:10102000EF92FF920F931F93CF93DF93009709F4F2
:101030008EC0DC01129713961C921E921297E090BC
:101040002303F0902403E114F10489F42D913C91E1
:101050001197280F391F8091210390912203821745
:10106000930789F5B0932203A093210370C0E70191
:1010700020E030E001C0EA01CA17DB0738F44A81FA
:101080005B819E0141155105B1F722C0AC01425070
:101090005109FA01D383C28300811181BC01600F21
:1010A000711F6C177D0761F468817981600F711F72
:1010B0006E5F7F4F718360836A817B8173836283FC
:1010C0002115310529F4B0932403A09323033FC0D5
:1010D000F901B383A283E90149915991C40FD51F46
:1010E000AC17BD0771F4DC019E918E91840F951FA2
:1010F00002969183808312968D919C91139793838E
:101100008283A0E0B0E002C0D7017C01F7018281B8
:1011100093810097C9F7C701029620813181820F20
:10112000931F20912103309122032817390779F466
:10113000109729F4109224031092230304C01396ED
:101140001C921E921297F0922203E0922103CDB7D7
:10115000DEB7E6E00C94B8082A88398848885F84AE
:101160006E847D848C849B84AA84B984C884DF8047
:10117000EE80FD800C811B81AA81B981CE0FD11D2B
:101180000FB6F894DEBF0FBECDBFED010895F89401
:02119000FFCF8F
:1011920000002503200048656C6C6F20005350202E
:1011A200706F736974696F6E206265666F72652015
:1011B20061737369676E696E67206E657720766109
:1011C2006C756520746F2053503A20004261636B46
:1011D20020746F206F735F737461727400546F2098
:1011E200626C696E6B0043757272656E7420535047
:1011F20020706F736974696F6E3A200053502070CB
:101202006F736974696F6E206166746572207075A0
:101212007368696E673A2000535020706F73697467
:10122200696F6E2061667465722073776974636892
:10123200696E6720746F206E65775F74703A200064
:101242005072696E74696E67206F757420535020F6
:101252006265666F72652072657475726E3A2000FF
:101262004572726F723A204D6178696D756D2061B9
:101272006D6F756E74206F66207468726561647339
:1012820020686173206265656E20726561636865BE
:1012920064004572726F723A204E6F206163746906
:1012A2007665207468726561642063616E20626590
:1012B20020666F756E640063757272656E745F741A
:1012C20068726561643A2000535020696E736964E4
:1012D20065204953523A20006E65775F69643A206F
:1012E20000656E746572696E6720636F6E746578EF
:1012F200745F73776974636820686572653A200069
:10130200436F6D696E67206261636B20696E746FF3
:10131200204953522066726F6D20636F6E74657838
:0A132200745F73776974636821003B
:00000001FF
